:02000004C0D06A
:1000000010B58CB062B605F035F801F073F86C46A7
:10001000204605F0C5FEA085000406D068460021F4
:1000200081850A9802F09AFF07E0684602F096FF81
:100030000A9000F07BFE00F087FE02F083FF694625
:10004000884202D10A9802F089FF6846808D002814
:1000500002D100200CB010BD01F084F8F0B581B0E1
:10006000FA4D28780C2805DC052860D00C2800D132
:1000700031E20EE10D2800D1B6E00E2800D008E1F3
:1000800041208700F24D0026EE5101200102685404
:10009000681802F0E1FE042002F06CFFE8516928C4
:1000A00000D04DE101F0B2F901F0B2F9BE242E53B7
:1000B000042002F05FFFE851C026A959002900D1B1
:1000C00009E2002800D106E2972800D103E2285B6C
:1000D000AA27C421695C80B2884200D3FBE102F008
:1000E00015FF002800D0F6E102F080FEB84204D1EE
:1000F00002F0A6FEB84200D0EDE1A859295B490103
:100100004018CC216958002902D08847002807D020
:10011000012803D1A859295B4901401804F0A6FF22
:10012000285B401C2853A9590029D2D1D3E1412092
:100130008600C74C0027A7510120010260546018B7
:1001400002F08AFE042002F015FFA051002800D121
:10015000C1E1972800D1BEE1692800D07AE101F021
:1001600055F901F055F9BE256753042002F002FF4E
:10017000A051C026A159002900D1ACE1002800D12E
:10018000A9E1972800D1A6E1605BAA27C421615CA0
:1001900080B2884200D39EE102F0B8FE002800D071
:1001A00099E102F023FEB84204D102F049FEB842C0
:1001B00000D090E1A059615B49014018CC21615801
:1001C000002902D08847002807D0012803D1A05970
:1001D000615B4901401804F049FF605B401C6053BB
:1001E000A1590029D2D176E1C420994D0090285C14
:1001F000BE26A95B814202D201200102685441203F
:10020000840000272F5101200002281802F024FE4C
:10021000042002F0AFFE2851002800D15BE16928DC
:1002200000D161E1972800D155E1C027E8590028A5
:100230002BD0A85BAA240099695C80B2884224D2A2
:1002400002F064FE002820D102F0D0FDA04203D1CC
:1002500002F0F6FDA04218D1E859A95B4901401807
:10026000CC216958002902D08847002807D00128EE
:1002700003D1E859A95B4901401804F0F7FEA85BD7
:10028000401CA853E9590029D5D10098285CA95BE6
:100290001DE141208600DA4C0027A7510120010210
:1002A0006054601802F0D8FD042002F063FEA051F3
:1002B000692800D097E001F0A9F801F0A9F8BE255F
:1002C0006753042002F056FEA051C026A159002910
:1002D00000D100E1002800D1FDE0972800D1FAE02C
:1002E000605BAA27C421615C80B2884200D3F2E03F
:1002F00002F00CFE002800D0EDE002F077FDB842DD
:1003000004D102F09DFDB84200D0E4E0A059615B49
:1003100049014018CC216158002902D088470028A3
:1003200007D0012803D1A059615B4901401804F0AE
:100330009DFE605B401C6053A1590029D2D1CAE0E8
:100340000446D8202958002911D0642264290B467C
:1003500000D31346C91A295009D1D421695800295C
:1003600000D1FFE0DC22AA582A5000208847002C48
:1003700000D1B0E0972C00D1ADE0C024285900286E
:100380002CD0BE26A85BAA27C421695C80B2884213
:1003900024D202F0BBFD002820D102F027FDB84294
:1003A00003D102F04DFDB84218D12859A95B49018B
:1003B0004018CC216958002902D08847002807D06E
:1003C000012803D12859A95B4901401804F04EFEC9
:1003D000A85B401CA85329590029D5D1C420285C0A
:1003E000BE21695A73E0C025605900286BD0BE2633
:1003F000A05BAA27C421615C80B2884263D202F06C
:1004000085FD00285FD102F0F1FCB84203D102F073
:1004100017FDB84257D16059A15B49014018CC2162
:100420006158002902D08847002807D0012803D14D
:100430006059A15B4901401804F018FEA05B401C04
:10044000A05361590029D5D13DE0C04600180020D5
:100450002C1F0020D0202058002803D0E97849081C
:1004600001F09EF8C025605900282CD0BE26A05B64
:10047000AA27C421615C80B2884224D202F046FDE2
:10048000002820D102F0B2FCB84203D102F0D8FC1F
:10049000B84218D16059A15B49014018CC2161587C
:1004A000002902D08847002807D0012803D16059CD
:1004B000A15B4901401804F0D9FDA05B401CA0538A
:1004C00061590029D5D1C420205CBE21615A8142E6
:1004D00001D302F01BFD02F019FD002801D100F04C
:1004E00047FE012001B0F0BD00F090FF00F090FF4A
:1004F000AF53042002F03EFD2851C027E9590029DE
:10050000E9D00028E7D09728E5D0A85BAA24009975
:10051000695C80B28842DED202F0F8FC0028DAD1B1
:1005200002F064FCA04203D102F08AFCA042D2D1C6
:10053000E859A95B49014018CC216958002902D02B
:100540008847002807D0012803D1E859A95B490151
:10055000401804F08BFDA85B401CA853E959002902
:10056000D5D1B8E7002CB6D0972CB4D000F04EFF10
:1005700000F04EFFBE202E520646042002F0FAFC88
:10058000E851C027E959002900D1F0E6002800D140
:10059000EDE6972800D1EAE6A85BAA210091C421E4
:1005A000695C80B2884200D3E1E602F0AFFC00282B
:1005B00000D0DCE602F01AFC0099884205D102F076
:1005C0003FFC0099884200D0D1E6E859A95B490177
:1005D0004018CC216958002902D08847002807D04C
:1005E000012803D1E859A95B4901401804F03EFDF8
:1005F000A85B401CA853E9590029D0D1B7E6C046F2
:100600002C1F0020B0B505460720284000240128F3
:1006100014D0022814D1002909D00B4802F06AFC3A
:1006200068B200280ADA02F041FB002406E0FF214C
:1006300052310548002202F075FC04462046B0BD48
:10064000022000F08FFDC046761A0020B0B50546A6
:10065000581C904211D80C460948C25C2A70C01838
:10066000511EC9B20A2908D2411C204605F0B8FA29
:100670002878002121540120B0BD024800F072FD0D
:10068000761A002084690000F0B581B004292CD9C5
:100690000C46194EF0780090B778012F17D1154607
:1006A00002F076FC02F084FC002D10D0062C1CD346
:1006B0007179134801708A00501C401D0A2914D812
:1006C000A04212D8B11D0F4805F08AFA06E0701D4D
:1006D000641F214602F070FCA0420AD10098391A2A
:1006E0000020401A484101B0F0BD0448401C00F011
:1006F00039FD024800F036FD761A002083690000BB
:10070000681A0020401A0020F0B587B01F460592F5
:1007100006910446109D02F09FFC2880119E002146
:100720003180288800B201283CDB04970F9903919F
:100730000E9B0D9902910C9D1C4FF97D022901938E
:1007400007D001290FD1694608605B1C184A7A441A
:1007500004E0694608605B1C164A7A442046069904
:1007600001F046FA05E0144A7A442046069901F061
:100770003FFA0024059804702C70FD60786004989E
:100780003881029838823C800398788002F01DFC02
:10079000054602F015FC014628462246019B01F061
:1007A000C9FE318808B207B0F0BDC046AC1D0020BC
:1007B0005E570000695700007457000070B5A8B07C
:1007C0000024029424480078002841D1234802786C
:1007D000684604602120224903AE334602F012FB32
:1007E00015A80BAD2946324600F0A8FB2021304663
:1007F00005F0F0F902F0E9FB064602F0E1FB0146E4
:100800006846456002AA0260FF235233154D304608
:100810002A4600F0ABFB0299CAB2AA18012809D1F6
:10082000547090201070881C81B2202000F01AFFB4
:10083000204609E0012050706F201070881C81B2A2
:10084000202000F00FFF002004F07EFB28B070BDD8
:100850006D20000200F086FC741A0020681A002047
:10086000401A0020761A002080B506488621417083
:10087000692101702020022100F0F4FE002004F024
:1008800063FB80BD761A0020F0B581B00093164658
:100890000B9A0A9B002B01D001241C80089F069D07
:1008A000002A01D0012313801F22D2060D4CA36819
:1008B00093430E4A7A4401F09BF90D4A7A4430463C
:1008C00000993B4601F094F9074800788000201811
:1008D0000321C9434750284600F0E4FB002001B043
:1008E000F0BDC046401A0020681A002031560000B2
:1008F00034560000F0B585B0414C20461D304449C7
:1009000079440A2205F06CF95D34424979440B229E
:10091000204605F065F904F0B9FBC420394C049079
:10092000255CBE200290265A374880210022019281
:1009300002F0F8FA902003903BE0C02560590028AF
:100940002ED0BE27E05B0499615C80B2884227D23A
:1009500002F0DCFA002823D103981A30C6B202F064
:1009600045FAB04203D102F06BFAB04218D1605997
:10097000E15B49014018CC216158002902D0884729
:10098000002807D0012803D16059E15B49014018D4
:1009900004F06CFBE05B401CE05361590029D2D1AC
:1009A0000498255C0298265A80210022164802F0FD
:1009B000B9FAAE42C1D300F0DBFB13488021019CA1
:1009C000224602F0AFFA114D284600F055FB2E46A4
:1009D0002136304600F066FB304605F0FBF9014653
:1009E0002131C9B2039A6A5469184C70233081B21C
:1009F000202000F037FE204604F0A6FA05B0F0BD36
:100A0000D42000202C1F002000180020761A00207F
:100A1000FC550000FC55000080B506488621417059
:100A2000692101702020022100F01CFE002004F04A
:100A30008BFA80BD761A0020F0B5A1B016460C46A0
:100A4000019015AD284605F0ABF90746A88580B2A0
:100A5000002819D0102800D1A3E015A80021818515
:100A60001F9802F07BFA0F20000338400921090388
:100A7000884203D003214903884278D1FF20000235
:100A800039460140080A75E015A802F067FA1F9080
:100A90007C4D2878552800D0A7E0042E00D8A8E087
:100AA000687803281FDC022800D083E07648002104
:100AB000017001223146FFF7E7FD002800D190E0E8
:100AC00002F088FA002800D0C7E002F09DFA7A48C8
:100AD00078447A4979447A4A7A4404F035FD002012
:100AE00004F03CFA3DE0042800D0C6E0684C6949B7
:100AF000052320463246FFF7A9FD2078811DC01D41
:100B0000B04200D9A6E06F5C634807706818BA006D
:100B1000531C59180A2F00D99CE0B14200D999E022
:100B2000411C5E4C204605F05BF8052F00D091E09B
:100B300020685C49884200D08CE06068584988424F
:100B400000D087E0E068002800D083E05748784470
:100B500057497944574A7A4404F0F6FC002004F0DF
:100B6000D9FC019A10681021014311600BE078054F
:100B7000400F68302168434A50542068101847706D
:100B80002068801C206002F0DDF915A9884202D19E
:100B90001F9802F0E3F915A8808D00286BD121B0D1
:100BA000F0BD15A8002181851F9802F0D7F910200B
:100BB00000F0D8FA002820D10020687028700121A8
:100BC000A9700221E97041218900374A5158421A1F
:100BD0004A419739401A4841104328712068401D06
:100BE00020600920000300F0BDFA3720400200F029
:100BF000B9FA6720000200F0B5FA01283DD1062EAF
:100C000028D36F7924480770BA00501C401D0A2F62
:100C100020D8B0421ED8A91D204D284604F0E0FF80
:100C2000052F17D128681F49884213D168681C49CD
:100C300088420FD1E86800280CD102AD284600F0A8
:100C400001FA08350F484122294600F058FA206879
:100C50004130C5E70D4800F085FA064605F0BAF8C0
:100C60000546084831462A4600F049FA20684019EE
:100C700020600648FC3000F075FA6D20000200F09C
:100C800071FAC046761A0020741A002084690000A8
:100C9000751A0020691A0020681A0020401A0020E6
:100CA000300100802C0000802C1F002037FDFFFF4A
:100CB0009FFDFFFFBFFEFFFF35FCFFFFE5FCFFFFD1
:100CC0008DFDFFFFF0B581B0052A0AD30C46154D06
:100CD0001549794404262846324600F02FFA0028A8
:100CE00001D001B0F0BD10206870312028700027BD
:100CF000AF70EE706E1D40210091304602F0C4F8D6
:100D00002871C0B237543718BE1C3046009902F023
:100D1000C9F87870C0B23018401B20600920000369
:100D200000F020FA761A00204152000010B500F0C1
:100D30004DFB0024204603F001FE012003F0FEFDE0
:100D4000204604F001F910BD90B000260F960E96D3
:100D50000D96304F0CA806806D46284605F020F809
:100D60000446A885000412D0684686850A9802F0D9
:100D7000F5F80F200003204009210903884203D021
:100D800003214903884220D10CA8048024E068464E
:100D900002F0E4F80E990F9100240E940A900D9839
:100DA0000F99C0B289B200F05DFC0F900D940F98BE
:100DB00000282AD00F9A0EAC2146FFF783FF0F9A26
:100DC0000DA82146FFF738FE11E0114804400D2020
:100DD000C00220180CA908800C98000A0E997854BB
:100DE0000C980E99791848700E98801C0E9002F09D
:100DF000A9F86946884202D10A9802F0AFF868461D
:100E0000808D0028A6D000F0ADF9034800F0AAF9C3
:100E1000FF070000761A002082690000F0B5A5B037
:100E2000054600202870802B14D816460C460490E6
:100E3000694608220B604A60886005AF04A9052254
:100E40003846334601F0CCFE049B284621463A46FC
:100E500001F042FE25B0F0BD10B5094CA180206024
:100E60000020E08007490A608B80C880207A012238
:100E700002432272087AFE2202400A7210BDC04666
:100E8000801800208C18002006480021C180064AE6
:100E9000D180017A01230B430372107AFE210140B5
:100EA00011727047801800208C18002070B50C4615
:100EB00005461B4E307AC1070DD11A4EF188B08815
:100EC000421A0020A2422ADB3068401829462246F6
:100ED00001F0F6FE1EE0F188B288521AA24213DA3F
:100EE000FE22104030720F48027A0123134303722E
:100EF000002902D03068FFF7D9FF28462146FFF7C6
:100F0000D5FF0021F18070BD306840182946224687
:100F100000F0F5F8B01D018809190180204670BD68
:100F2000801800208C1800200248017AC90700D1DF
:100F300001487047801800208C18002070B51346B7
:100F40000C4605462126202230461946234601F04C
:100F500005FF002130460A462B4601F0EFFE012333
:100F600030462946224601F009FF70BDF0B5A7B012
:100F7000089306920F4606462D98059001242102FB
:100F80002E4D284601F0CCFE20210A916846416092
:100F90001FA9079101602846214632463B4601F0D1
:100FA000ABFE212600270CAD304639463A462B468B
:100FB00001F0C4FE30462946059D2A460994234681
:100FC000069C01F0DBFE0B970BAE68460A9912C037
:100FD0000899016046601A49032228460892079B37
:100FE00001F0DCFE2C99079108602DA804223946F7
:100FF00000F09BF8611D271DE578212D00D03946B2
:10100000601940790590367820460A9A00F077F802
:101010007919481C059A212A00D00846811C2046CF
:1010200020300A9A00F06BF80898064040202654B9
:10103000412007990860099827B0F0BD9818002052
:1010400001060000B0B594B00446094802780020BB
:10105000694608602120074902AD2B4601F0D2FE07
:101060000AA920462A46FFF769FF14B0B0BDC04662
:10107000681A0020401A0020B0B594B0044601ADB3
:101080002846FFF7DFFF4820285C01210140881C2B
:101090002872083521222046294604F0A1FD14B00B
:1010A000B0BD0000F0B59FB0039004AD2846FFF737
:1010B000C9FF012631020D4C204601F031FE059892
:1010C00020216A46516017AF17600935431E20463C
:1010D00031462A4601F010FE0C37054914230398C7
:1010E0003A46FFF79BFE1FB0F0BDC046981800209F
:1010F000691A002080B5002001F030FF80BDB0B536
:10110000884208D9002A0FD0491E401E8B5C8354A8
:10111000521EFBD108E0002A06D000239CB20D5DD0
:1011200005555B1C521EF9D1B0BD80B5002A04D014
:101130000B4611461A4604F05BFD80BD70B5401E9B
:10114000491E541E0023002A0AD08D5C865CAE42E4
:101150002246F6D00020C0430123AE4200D8034609
:10116000D8B270BD044601F0EDFE214604F024FE25
:1011700080B501F0CBFE002800D080BD06480021DC
:1011800041706022027002228270C17001710521DB
:1011900001F0B0FE80BDC04600180020B0B51A486E
:1011A000C078032807DC01280DD0022828D1174871
:1011B00002F01AFFB0BD04281FD0082820D1134820
:1011C00002F010FFB0BD114C0121204602F005FFD6
:1011D000204602F0E2FE0E4CA079002811D12046F4
:1011E0000C30002507222946FFF79FFF14340E22FA
:1011F00020462946FFF799FFB0BD044802F0F0FEF3
:10120000B0BD1020FFF7AEFF00180020CC1D00205D
:10121000C81B00207F2101400020062902D8024877
:101220004018007B7047C046C81B002080B5154899
:101230000179042917D0022906D0012920D1811D66
:10124000124802F0A7FD80BDC2787F211140062917
:1012500016D84A000C4B9A1800239382821D0B4823
:1012600002F024FE80BDC2787F211140062907D8F4
:10127000054A521843791373821D044802F0B9FDE0
:1012800080BDC04600180020C81B0020CC1D0020D7
:1012900070B5FF2A1ED815460E4604460E4850214A
:1012A0000170202101714271D11C81708022224382
:1012B000C270090A4170062101F01CFE3046294621
:1012C00001F018FE7F2020404000044908187D21CD
:1012D0000901818270BDC04600180020C81B002093
:1012E00080B50A46014682201423FFF7D1FF80BD56
:1012F00080B50A46014683201423FFF7C9FF80BD4D
:1013000080B50C480178002900D080BD062181718C
:101310000A21017008498A784B781B029A187D23AC
:101320007D2A00D31A464280C91C0448FFF7E7FE15
:1013300080BDC046C81B002000180020761A00207F
:1013400010B52048817842781202511800780F2891
:101350000ADC0E2810D00F2822D10020012926D126
:10136000FFF71CFF012010BD10281DD0162817D133
:10137000FFF7C6FF012010BD13488168643181600A
:101380002021425A002A08D06423642A144600D33C
:101390001C46121B425212040ED0891E1229F0D193
:1013A0000220FEF75BFE10BD0020032900D210BD15
:1013B000FFF73CFF012010BD002101701020FFF756
:1013C000D1FEC04600180020C81B0020B0B50A207E
:1013D00001F060FC09480A4901600A4C00252422FA
:1013E00020462946FFF7A1FE65802570A571A560FE
:1013F00000F07AFB044805604560B0BDF421002090
:101400003100ADDEC81B0020EC1B0020704700003F
:1014100002480021016041607047C046EC1B00207B
:10142000F0B589B00546084601F01AFB002843D004
:101430000446006900283FD0284601F011FB014610
:1014400002AD1C2228460192FFF759FE2168E9806F
:1014500062682A81A068194F65233B7089B292B2F5
:101460004A4342435307D1084A1C002B00D10A4685
:10147000009204268640B0181D30B870000A7870BB
:101480000321384601F036FD2846019901F032FD6E
:10149000A06838700121384601F02CFDE06801F0A9
:1014A000DFFAB1B201F026FD009885B2206901F0A3
:1014B000D7FA294601F01EFD09B0F0BD0018002042
:1014C00070B501F0CDFA044600787F26064001F0A1
:1014D0001DFD002830D1002E2ED0E06900281DD03F
:1014E00001F0BEFA0546052E02D1A07E002824D0C8
:1014F000284604F06FFC064612486521017031460B
:101500001C318170090A4170032101F0F3FC1C2198
:10151000204601F0EFFCB1B228460BE0094800215B
:101520004170652101701C258570032101F0E2FCEA
:101530002046294601F0DEFC70BD20462946FFF713
:101540006FFF70BD0018002080B50A46C16900F029
:1015500001F880BD70B5002500281ED0164604464F
:101560000078072801D0022817D1084601F078FA40
:10157000002812D004F02EFC4643E08886420CD9A5
:10158000311A7D2000014843A17E04F08BFAA17A34
:101590004906090E64224A431518284670BD00000A
:1015A00070B5002829D004461448066845688E4264
:1015B00001D16D1C45600E43002902D00660324601
:1015C00005E00022026042600D4B5B1C1E438A4214
:1015D00001D000214160082D0CD30321284604F0DE
:1015E000E7FA012290073043002900D03046D107A6
:1015F000884300E030462946A04770BDEC1B002020
:10160000FFFFFF7F04480021417046220270817075
:10161000032101F06FFCFEE700180020F0B581B057
:101620000F4E01243470B11CFF2750377A1C20461E
:1016300001F046FC054670703A1A3718F91C022072
:1016400001F03EFCB8702D187619F47001F010FC12
:101650003071902070710020B071E81D01B0F0BDB4
:10166000761A0020F0B58BB00B460746AE480068EE
:10167000AE49884200D051E1780708D00797079813
:10168000C0B299B2FEF7BEFF80B20BB0F0BD8020B1
:101690000690A94CA74E079710203D46054099B2E9
:1016A000002900D1B6E0002D00D0B3E005910293EF
:1016B0000390049507E080210022304601F032FCBF
:1016C000012000F04DF901F021FC0028F3D17D202C
:1016D0000001A1680D182078092843DC0728059926
:1016E0004BD0092865D100219448019102F060F99E
:1016F00010E0FFF73DFD80210022304601F012FC92
:10170000A068A84200D303E1FFF71AFE01F0FEFB38
:101710000028F0D1894801F0A3FE0028E9D0059AFD
:10172000D01D4008A92800D3FAE00698103084495B
:1017300088548818019A4270481D029A921C92B2ED
:10174000FFF7DDFC05227E480199FFF7EEFC0698C5
:10175000C01CC1B20298C01D83B27848784A02F01A
:101760003BF941E00A28029A0CD00B28059923D1B5
:101770007748784400F022FA36E07448784400F064
:101780001DFA31E010466F4908404008A92800D3EF
:10179000C6E053203070B270100A707003213046DA
:1017A00001F0A8FB6648059901F0A4FB0020207019
:1017B0001DE0002800D1AEE00798C0B2FEF722FF7E
:1017C000002811D0A7E0FFF7D3FC8021002230468B
:1017D00001F0A8FBA068A84200D399E0FFF7B0FD94
:1017E00001F094FB0028F0D120780028EBD10020F4
:1017F000A07120706080B90600D545E7FFF7B8FCFE
:101800003806049D039805D5089008AA4E4B184643
:10181000114601DF002D04D1780674D40020A07198
:1018200020700020608001F071FB002801D1FFF7DB
:101830009FFC8021002530462A4601F073FB0228D8
:1018400006D8B178727812025118C91C81423DD174
:10185000FFF776FD608821780029E4D00028E2D0E7
:101860003C4979440422364F3846FFF767FC00288C
:101870002ED03949794404223846FFF75FFC00280E
:101880002BD03649794404223846FFF757FC00280C
:101890003CD106982A30C7B201F0D2FAB84225D11D
:1018A0000120274D2870A81C402101F0BBFA687068
:1018B000811C1F4A13461140069A10326A54C11CFB
:1018C000194000226A54031D154616E00020A7E7C0
:1018D000FFF7A4FE034600250FE00020787006996C
:1018E000084610303870079D0D4305E06920144903
:1018F00008700698401D48700223EFB207956807EC
:1019000000D1C9E6BBE66088401FBDE66088BBE643
:101910001020FFF727FC0920FFF724FCFFF772FED9
:101920000220FFF71FFCC046F42100203100ADDE8D
:10193000FFFF000000180020C81B0020F41B00203F
:10194000761A0020FEFF0000BE9A006061FBFFFFD8
:101950007BFBFFFF9A4700008D4700008247000095
:1019600070B5044601F0D2FA002801D1FFF700FC5F
:101970000C4E8021002530462A4601F0D3FA3078FB
:10198000152806D8012181400748014201D0002CCA
:1019900005D1FFF7D5FC0125002800D105462846D2
:1019A00070BDC0460018002020702000F0B581B046
:1019B00000920446454EB14210D00F46434D0021DF
:1019C000402628463246FFF7B0FB009A402A00D353
:1019D000324628463946FFF792FB3C4EB078012844
:1019E0000ADC002825D0012860D1F01C042101F078
:1019F00075F94021304628E0022824D0052855D129
:101A00003079F17809020818314C216800278842A2
:101A100052D1206800281BD00098401F85B22D4865
:101A20000168A94201D2006885B22B480068711D87
:101A30002EE0F01C002704223946FFF776FB4021F8
:101A40003046A04738E021484021A047002733E036
:101A5000B0797179090209182048016001684908C4
:101A6000A82929D801681B480160717832781202D0
:101A700051181B4A116018491A4A0A600099C91F77
:101A80008DB20168A94201D2006885B2F11D1548E6
:101A90002A46FFF734FB0F480168491B01600E48D6
:101AA0000168491901602068401C206009480168EC
:101AB00001200227002907D10548002101600648BE
:101AC000016004480160384601B0F0BD381C0020B8
:101AD000781C0020801C0020841C00207C1C00201E
:101AE000881C0020761A002003480021016003486A
:101AF0000160034801607047781C0020841C0020AE
:101B0000801C0020F0B581B0264F3A68264C216831
:101B1000002921D0002A1FD00090264D002140220C
:101B20002846FFF702FB0520A87023480168090A30
:101B30002970006868701D490868000AE870086824
:101B400028710968206800290ED03B263B2800D860
:101B500026683968681D12E0144800210160396068
:101B60001348017021601BE03926392800D8266807
:101B70002068000A68712068A8713968E81D32463B
:101B8000FFF7BDFA009A09492068801B2060386879
:101B9000801938600868401C08600648402190475A
:101BA00001B0F0BD841C0020801C0020781C0020A7
:101BB000C81B0020381C0020881C002080B500298C
:101BC0000BD0064A00231360054A1160054A064BF4
:101BD0001360064A1160FFF795FF80BD781C002056
:101BE000801C0020841C0020761A00207C1C002011
:101BF00081B0F0B58EB01393022900D2AAE1074656
:101C0000002800D1A6E11546002A00D1A2E10C4629
:101C1000384603F0DFFF13A809902978002900D186
:101C200098E1641E002602E0A8194178761CC8B22B
:101C3000002801D02528F7D1A64200D326463846F1
:101C40002946324603F0D0FFA41BBF19002C00D157
:101C500080E1A95DAD19252900D014E1069404970F
:101C60006B1C002420200A21089127460594079424
:101C700003E009990A1D09920F681D46224629783A
:101C80006D1C00242D29F9D0472918DC2F29069C2A
:101C900028DD0B46303B0A2B6ED23029044600D19A
:101CA0000C46079B002B00D004460A2307984343A9
:101CB0005818303807902B4620461446DDE7672930
:101CC000069C08DC62293EDC48294CD101460120F3
:101CD0000590084603E072291ADC68294AD11021D0
:101CE000089117E0252900D1C0E02A2923D02E2908
:101CF00042D129782A2900D02AE16A786B1C012474
:101D00002A21482AB5D0682AB3D0732AB1D017E067
:101D1000732933D109990B1D0993032313400968D3
:101D2000012B00D1B2E0022B00D1B2E0032B2B46F5
:101D30001446A2D0B3E02978022473292B4698D008
:101D4000049F069C9FE0632900D191E0642913D190
:101D500002900998011D09910068C11742184A4074
:101D6000C00F0A2713E0582906D10146012005902B
:101D7000084605E0702903D0049F83E07829FBD151
:101D800002900998011D0991026800201027012482
:101D900097420892039012D80126384604463946E5
:101DA00003F080FEB04209D1384660430799491ECE
:101DB0000791089988422646F0D900E034460798F2
:101DC000411E039B002B00D101460026F043002B4F
:101DD00000D1184601900298C2B2302A06D1002BD9
:101DE00004D00AA82D23037000230126881E0D2885
:101DF0000BD80AA88019491E039303F0F9FE039B30
:101E00000798801901994018461E059A002B03D0A7
:101E10000AA82D218155761C002C1AD0002A02D048
:101E20005248784401E05048784407900898214689
:101E300003F038FE394603F0BBFE0798405C0AA960
:101E400088552046394603F02DFE761CA7420446ED
:101E5000ECD9069CA64200D326460AA9049F384620
:101E6000324603F0C1FEA41BBF1909E0252003E0A0
:101E70000998011D09910068049F3870641E7F1C39
:101E8000002C67D02978002964D0CBE63E46049F19
:101E90000DE0087800283FD0049F069CF2E700225E
:101EA0008B5C521C002BFBD1561E049F069C08988D
:101EB000102827D1002EE5D00891002023460146A6
:101EC000089A125C0F2010401209022B42D31C46C4
:101ED000059B002B04D0012B08D1224B7B4401E051
:101EE0001F4B7B44185C7870985C38702046A41EA9
:101EF00002282FD00846481CBF1CB0422346DED320
:101F0000079018E0A64200D326463846324603F032
:101F10006BFEA41BBF190CE0069CA74200D327460A
:101F200020220498394603F063FEE41B0498C0198C
:101F30000746002C0ED00798B042A3D9861BA642B4
:101F400000D3264620223846314603F051FE8AE768
:101F5000049F98E700200EB0F0BC02BC01B0084717
:101F6000294100003F410000E3410000F941000029
:101F7000F0B58FB004930026002A00D183E1074614
:101F8000019114980990781C02900220C04303909C
:101F90000020C24C05460646089207973B5C072185
:101FA0001940DB08032B3BD0022B6ED0012B00D055
:101FB00066E1022900D063E10021431C4D41981ADB
:101FC0002846884100D35BE1D01A0A46A941F91896
:101FD0000D910106069300D18EE005920B950A96AD
:101FE000C0B20C9000252F462B462E460D98C15DA1
:101FF0000E917F20084000212A461C4603F0DEFD9A
:1020000023460E4303430E98000604D5ED1D7F1CA6
:102010000C988742EAD30A9EA04C0B9D059A6DE06E
:10202000022900D02CE10021431C4D41981A28467A
:10203000884100D324E1D01A0A46A941F9180D912C
:10204000010606930A966ED005920B95C0B20C90CD
:1020500000252F462B462E460D98C15D0E917F2000
:10206000084000212A461C4603F0A8FD23460E43E3
:1020700003430E98000604D5ED1D7F1C0C98874283
:10208000EAD3864C0B9D059A4FE0022900D0F7E079
:102090000021431C4D41981A2846884100D3EFE0A7
:1020A000D01A0A46A941F9180D910106069300D1EC
:1020B0009DE005920B950A96C0B20C9000252F4624
:1020C0002B462E460D98C15D0E917F2008400021C1
:1020D0002A461C4603F072FD23460E4303430E9826
:1020E000000604D5ED1D7F1C0C988742EAD30A9E9A
:1020F0006A4C0B9D059A7CE017461346781CC0B2CB
:102100000699091855410998864200D09CE00B9524
:1021100010202246205E0E9008200C46115E50686A
:102120005F4A7A4478E017461346781CC6B2069890
:1021300080190C9055410A980999884252D108207B
:10214000215E2046248A4068574A7A440D930D9BAD
:10215000FFF74EFD0D9AE00B201800B24010411E13
:102160008A42104600DB08460B953221322803468E
:10217000069A00DB0B460128484C21461C461ADB18
:102180009019029908184549401E0E9000263746BE
:1021900035460E98435DC868C01910213F4A515E0C
:1021A0007118424A7A44FFF723FD3C49B61EBF1C12
:1021B0006D1CA542EDDB0D9B9C424ADA1020085EA7
:1021C00065000C460321491B0918E068039A801832
:1021D0004019374A7A44FFF70BFD0D9B0A9E089A77
:1021E000079F3BE029460A9E089A079F3AE0174658
:1021F0001346781CC0B206990918554109988642C1
:1022000022D10B9510202246205E0E9008200C460D
:10221000115E5068234A7A441D46FFF7E9FC079F88
:102220000C9439190E98401EA8420D9500DC054605
:102230001A4CE0682A4603F001FEE068002141558F
:102240000B99089A0D9B0DE008462946089A079FAE
:1022500009E065000A9E089A079F0C46E068002185
:1022600041550B990C98DD17C0184D41761C002183
:10227000831A2B468B4100D290E6049A019904E020
:102280000398801C07E03046049A08700120002A59
:1022900001D0166001200FB0F0BDC046AC1D00207B
:1022A000093F00001F3E0000F53E0000AE3E00006A
:1022B000833E0000F0B58FB001930A900026002AFB
:1022C00000D126E11746009114980490002004469E
:1022D000054606460690089005920A98005D07227A
:1022E0000240C3080698C043032B3ED0022B73D094
:1022F000012B00D016E10023D843022A00D011E1BF
:10230000621C5D41D11B2946994100D30AE1B81AEC
:102310001946A9410A990B9289180D91010600D11D
:1023200093E0039309950796C0B20C9000252C46C4
:102330002A462F460D98015D0E917F20084000210E
:1023400016462A4603F03AFC32460F4302430E98E3
:10235000000604D5ED1D641C0C988442EAD3079E48
:10236000059F099D0899039B72E00023D843022A28
:1023700000D0D7E0621C5D41D11B2946994100D3B2
:10238000D0E00796B81A19460995A9410A99029210
:1023900089180C91010603936FD0C0B20B900027EF
:1023A0003D463C460E973E460C98415D0D917F2080
:1023B000084000213A4603F001FC0E430E99014308
:1023C0000E910D98000600D48DE0FF1D641C6D1C5D
:1023D0000B988542E8D387E00023D843022A00D037
:1023E000A0E0621C5D41D11B2946994100D399E0D0
:1023F000B81A1946A9410A990B9289180D9101063C
:102400003ED0039309950796C0B20C9000252C4648
:102410002A462F460D98015D0E917F20084000212D
:1024200016462A4603F0CAFB32460F4302430E9873
:10243000000604D5ED1D641C0C988442EAD3079E67
:10244000059F099D0899039B1DE01C461A460899A3
:10245000601CC0B20B9C24185D41049881423CD1A1
:1024600009951020304915460A46085E0E9008204E
:10247000095E50682D4A7A4419E01C460E9333E0F9
:102480001C461A460899601CC0B20B9C24185D417A
:102490000498814221D109951020234915460A4606
:1024A000085E0E900820095E5068214A7A44FFF7C2
:1024B0009FFB0A9801190E98401EA8420E9500DC59
:1024C00005461948C0682A4603F0B8FC1648C0689B
:1024D00000214155099D08990E9AD017A41845412D
:1024E000491C08910CE02C46601CC0B202990818E7
:1024F000099D03994D410E9A84184D41079E059FF1
:10250000761C0020E21B2A46824100D2E5E60099B3
:1025100000E034460C7001200199002902D0019896
:10252000066001200FB0F0BDAC1D0020E53B0000AF
:10253000893B0000F0B593B0079303920027002970
:1025400000D173E2002216461446174608920E92F6
:1025500006910C90825D07251540D208089BDB434D
:10256000032A43DC012A00D186E0022A00D1BDE023
:10257000032A00D061E222460024E343002D00D06C
:102580005BE2751C6241681A1046A04100D354E218
:10259000481B214691410C9949190B910106099755
:1025A0000D920594049500D150E1C0B20A90002527
:1025B0002C462F462B462E4610960B98015D0F9108
:1025C0007F20084000212A461E4603F0F7FA3346D2
:1025D000109E0E4303430F98000600D49BE1ED1DAF
:1025E0007F1C641C0A988442E6D395E1042A00D13A
:1025F000B7E00A2A00D1EEE00C2A00D01DE2234603
:102600000024E2430592022D00D019E2751C6341BB
:10261000681A1846A04100D312E20220ED4AD07594
:10262000481B214699410C9949190B9101060997BC
:102630000D930494029500D10CE1C0B20A900024DD
:102640002746264610940F940B98C55D7F2028409E
:102650000021224603F0B2FA0F9A0A43109901436F
:10266000280610910F9200D46FE1E41D761C7F1CA8
:102670000A988742E8D369E10022D343002D00D0B5
:10268000DBE1354606466D1C5441681A20469041F0
:1026900000D3D2E1481B1146A14171190F910106E7
:1026A00000D1DBE005950A920D940997C0B20B901A
:1026B00000252E462B462F460F98815D10917F20D6
:1026C000084000212A461C4603F078FA23460F43AF
:1026D00003431098000604D5ED1D761C0B98864226
:1026E000EAD3099F0D9C0A9A059DB9E00022D343C5
:1026F000002D00D0A1E1354606466D1C5441681AF4
:102700002046904100D398E1481B1146A141711920
:102710000B91010609970D940592049500D1C1E033
:10272000C0B20A9000252C462F462B462E46109606
:102730000B98015D0F917F20084000212A461E461C
:1027400003F03CFA3346109E0E4303430F980006F5
:1027500000D411E1ED1D7F1C641C0A988442E6D36D
:102760000BE10022D343022D00D066E13546064638
:102770006D1C5441681A2046904100D35DE1481B0E
:102780001146A14171190F9101060A9500D18DE002
:1027900005920D940997C0B20B900024264622465C
:1027A00027460F98815D10917F2008400021154633
:1027B000224603F003FA2A460F430243109800060C
:1027C00004D5E41D761C0B988642EAD3099F9D4DE3
:1027D0000D9C059B6DE00022D343022D00D02CE11F
:1027E000751C54416E1A2646964100D325E10126F8
:1027F0000492944AD675049A4E1B1146A141401981
:102800000B90310609970D94059302957FD0F0B295
:102810000A9000242546264610940F940B98475D95
:102820007F2038400021224603F0C8F90F9A0A435E
:1028300010990143380610910F9200D4CCE0E41DAA
:10284000761C6D1C0A988542E8D3C6E027462346CD
:10285000264661E0264610940F9477E0164613460C
:10286000701C12A90870C0B22E1854410125079996
:102870000E9A8A4249D1082072490D940C46095E8D
:102880006068714A7A4435461E46FFF7B1F9102058
:10289000215EE0680D9C6D4A7A4433462E46FFF770
:1028A000A7F931E017461346164666E0164613466A
:1028B000644D701C12A90870C0B20A990E185C41D0
:1028C00007980E9981421CD10D941020285E10901B
:1028D0000820295E68681446604A7A44FFF788F940
:1028E0000C9881191098401EA042109400DC0446F8
:1028F000E868224603F0A2FAE868002101550D9C21
:10290000109AD017B61844410125069983E016465F
:1029100010920F9261E02746781C12A90870C0B28D
:102920000499081810900D9C0598444101250799B9
:102930000E9A8A4248D108204249354626460C461E
:10294000095E6068444A7A442FE03E46701C12A932
:102950000870079A0E9BD21A6B461A60C0B2029A90
:1029600015180D9C049844410C98401911AB109E09
:102970003246FFF79FFC45E02746781C12A90870F5
:10298000C0B20499081810900D9C05984441012587
:1029900007990E9A8A4217D108202A4935462646B9
:1029A0000C46095E60682A4A7A441F46FFF720F900
:1029B0001020215EE06834466A4617605560254A5B
:1029C0007A44FFF715F90125099F06990C98109E86
:1029D00022E0C046AC1D00202E46701C12A90870D3
:1029E000079A0E9BD21A6B461A60C0B2029A15184B
:1029F0000D9C049844410C98401911AB109E32462E
:102A0000FFF7B6FA401C099F0699059B15D0AE1931
:102A10000F984441119D0C980E9AAA180E92EF1926
:102A20000023721A22469A4100D293E501230398AB
:102A3000002802D0039807600123184613B0F0BDA8
:102A4000059BFAE7AC1D0020E23700005536000078
:102A5000C63600002D3500002E370000A4370000D8
:102A600080B50449884204D30349884201D200F06A
:102A700005F880BD0000D0C0008AD0C07A46024967
:102A8000C91C891A401A70477D2AD0C04101C91754
:102A90000C4A0A408101C9170B4B0B40C101890840
:102AA000594051400201D217084B13404B40C1001E
:102AB000C917074A0A405A408000C1170548084014
:102AC000504070476D8E5026B2576A3BFA19A11ECE
:102AD000DD33423DB362142AF0B587B0059304920A
:102AE000064602910C7800270120002C03971DD088
:102AF0000298401C06900120002725460197294690
:102B000041392A46213AD2B25D2A5FD8C9B21A2980
:102B10005CD3FFF7BBFF01460698C25DE02005408D
:102B2000680948407F1C002A1546E8D10599C91953
:102B3000C91D5A2903994CD8FFF7A8FF002C0ED0C5
:102B400002994D1CFFF7A2FF014634701F20204060
:102B50004840691C761C2C78002C0D46F2D131219E
:102B60003170711C06910599002914D000241A4E69
:102B70007E44039404990F5D1F2F29D8F55DFFF75C
:102B800085FF06990D557840641C05998C42F1D358
:102B90000699091906910624FFF778FF641EFBD1F8
:102BA0000121484019220D497944069B0446D4402E
:102BB0001F2525404C5D1C70541F5B1C002A2246BB
:102BC000F4D1002006998871012102E0019900E00A
:102BD0000399084607B0F0BD18350000E034000046
:102BE000F0B586B003930F4605900024E34393406D
:102BF000DD430D9800900C9801900B990029264612
:102C000027D05042049000263446019836182346B7
:102C10008340039804781C43401C0390491E029192
:102C2000964213DB3B6829465D1C3D60049885197C
:102C300010463A462746EC400D4605992C40CC54A8
:102C40003C4617460246361A8642EBDA02990029BC
:102C5000DBD1009800280DD0002E14D03B683946F7
:102C60002F4625465C1C0C60911B8D403D4005980D
:102C7000C55408E0911B8C402C40002101988642ED
:102C800002DA002C00D10121084606B0F0BD01DFB8
:102C90007047000080B584B00190034801A9FFF798
:102CA000F6FF04B080BDC0463701006080B582B039
:102CB00002486946FFF7EBFF02B080BD3C020060AE
:102CC00080B586B0019002910392034801A9FFF7F5
:102CD000DEFF06B080BDC0467F03006080B584B0D3
:102CE0000090019103486946FFF7D1FF019804B0B5
:102CF00080BDC0462C05006080B588B00090019171
:102D0000029203930A9804900B9805900348694631
:102D1000FFF7BDFF019808B080BDC0463B070060CB
:102D200080B584B00090019103486946FFF7AFFF7A
:102D3000019804B080BDC046CF10006080B586B059
:102D4000009001910292039303486946FFF79FFFA9
:102D5000019806B080BDC046ED2D006080B586B0FC
:102D6000009001910292039303486946FFF78FFF99
:102D7000019806B080BDC046EA2E006080B586B0DE
:102D8000009001910292039303486946FFF77FFF89
:102D9000019806B080BDC0462E2F006080B58AB075
:102DA00000900191029203930C9804900D98059065
:102DB0000E9806900F98079003486946FFF767FF43
:102DC00001980AB080BDC046F338006080B586B077
:102DD000019002910392044801A9FFF758FF02985D
:102DE00080B206B080BDC0466E92006080B582B0F1
:102DF00003486946FFF74BFF0198C0B202B080BD9F
:102E00004F9F006080B588B00190029103920493B7
:102E10000A980590024801A9FFF739FF08B080BD64
:102E2000BA53006080B584B00090019103486946B0
:102E3000FFF72DFF019804B080BDC046FCA80060DC
:102E400080B582B003486946FFF721FF0198C0B200
:102E500002B080BD3CA0006080B584B00190034802
:102E600001A9FFF714FF029804B080BD5864006008
:102E700080B582B003486946FFF709FF019802B0A8
:102E800080BDC0466E6A006080B584B0009001913C
:102E900003486946FFF7FBFE019804B080BDC046B9
:102EA000B86B006080B584B000900191034869461A
:102EB000FFF7EDFE019804B080BDC046AC6F006026
:102EC00080B586B0019002910392034801A9FFF7F3
:102ED000DEFE029806B080BDD474006080B584B078
:102EE0000190034801A9FFF7D2FE04B080BDC0469F
:102EF000BE9A006080B584B0009001910248694696
:102F0000FFF7C5FE04B080BD8183006080B582B04C
:102F100003486946FFF7BBFE019802B080BDC0467A
:102F2000BB84006080B586B0019002910392044892
:102F300001A9FFF7ACFE029880B206B080BDC04682
:102F4000E485006080B582B003486946FFF79FFEC4
:102F5000019802B080BDC046B187006080B584B0E2
:102F60000190034801A9FFF792FE029804B080BDCA
:102F70007588006080B584B00190044801A9FFF70E
:102F800086FE0298C0B204B080BDC0468B9C006033
:102F900080B50548FFF764FD0246012001024303A6
:102FA0000248FDF759FF80BD006AD0C08C1C00208C
:102FB00080B5FDF769FF80BD80B5FDF777FF80BD67
:102FC00080B5FDF7B1FFC08880BD80B5FDF7ACFFCF
:102FD000006880BD10B5FDF7A7FF0468FDF7A4FFEA
:102FE000C1880022D3432046FFF7A4FA012803D169
:102FF00003490020087210BD0248784410BDC04645
:10300000A01D0020AF300000F0B581B00F4D287A30
:10301000002818D10E4E002777823782F78137803B
:103020000C48F080B0807080FFF7CFFF0446FFF7B8
:10303000C7FF0146FB436A462046FFF77BFA0120A3
:1030400028720098308001B0F0BDC046A01D00205D
:103050008C1D0020FFFF000080B5FFF7D5FF024860
:10306000008800B280BDC0468C1D0020F0B583B042
:10307000354A1278002A03D08321354A7A440BE07E
:10308000089A452A03D88321324A7A4404E0072962
:1030900007D18321304A7A44022300F09DFC03B01B
:1030A000F0BD00920190402002931E5C002E1AD0C9
:1030B000052E029D08D12846413028497944052231
:1030C000FEF73CF800282BD041350024244F7F44E4
:1030D000E0B2032102F06CFD285D795C4140295586
:1030E000641CA642F4D145200299085C4630009A3F
:1030F00090420FD1413115483246FEF700F80720C3
:10310000114988714E80092008700121019800F052
:103110004FFCC4E78321134A7A4402230198BCE799
:103120000A4D03222A70681C0F497944FDF7E7FF16
:10313000281D0E4979440422FDF7E1FF2878431D3C
:10314000832101982A46A8E7C81B0020761A002090
:103150004A3000003E3000003430000010300000E3
:1031600004300000C32F0000A82F0000A22F000091
:10317000F0B581B01D460E460446184600F00CFC22
:1031800000280ED02068C11C090A6A469170811C73
:10319000090C5170411C090E1170001D2060D07087
:1031A00004E0684604222946FDF7A9FF174F0822CC
:1031B00038463146FDF7A3FF3846083069460422F9
:1031C000FDF79DFF00207873022139730121B97347
:1031D000F8733874284600F0DFFB0146201D862571
:1031E000002906D029467931C9B20422FDF79DFF96
:1031F00003E069460422FDF782FF044A11232046BA
:10320000294600F0E9FB01B0F0BDC046761A002067
:10321000F0B583B0029088794B791B021F1888782B
:1032200001904B780E781546093DACB2A74204D008
:10323000D01FD21F92B297421BD13D46002E08D01C
:1032400083211C4A7A440223029800F0C5FB03B094
:10325000F0BD022B18DC012B23D0022B1DD1A8B20C
:103260006A461060CB1D002202980199FFF7FEFE0E
:10327000EDE7E4B2A742E1D0D2B297420546DDD0F5
:1032800083210D4A7A44DEE7032B0ED0C12B04D1F3
:1032900083210A4A7A440423D6E783210A4A7A44DE
:1032A000D1E78321064A7A44CDE78321054A7A444F
:1032B0000823C9E7A52E0000442E0000512E00006F
:1032C0001E2E00002F2E00004D2E000080B5C1697B
:1032D0008A784B781B029B180A78812A09D0832AA6
:1032E0000DD0862A0FD1C91C031D0022FFF740FF15
:1032F00080BDCA1C9BB2812100F06EFB80BDC91C41
:103300009AB2FFF785FF80BD70B5012A13D10D4633
:103310000146094C20462A46FDF7F1FE6019402679
:10332000721B00252946FDF700FF81202146324609
:103330002B46FDF7ADFF70BD381C00200282C16036
:103340000022C282827642858284C1610262704715
:10335000F0B585B00D4604462A20215C20462A306F
:10336000012944D0002935D12B2100226254214665
:103370002B312022A25CD21ED2B226462036012A50
:1033800038D8228BE38A9A4236D9A07E03210126BF
:103390000390002800D031466F1E0026F01B7841B4
:1033A00080000818402101910F1AD11AB94200DC9F
:1033B0000F46029038180490012D039806D1211D64
:1033C000264804263246FDF79AFEA07E002820D02B
:1033D000401E28E02521615C062908D12B21625C72
:1033E0000023635421462B31002A03D1C1E72B204F
:1033F0000021215405B0F0BDFCD10022A276E2826A
:103400000A700270B2803260E068E06112480270B7
:10341000F0E70198205C1149885501203043627E15
:103420000A54461C207E0D4B9855E169002906D0B0
:10343000BAB202981818E38AC918FDF760FEE08A4C
:10344000C019E082A07E401CA076049881B2034897
:103450002A46FFF759FFCDE7C81B0020381C002083
:103460002A21425C0121002A0DD0012A01D100212C
:1034700009E02521425C0021062A04D12B21405C71
:103480000021091A4141084670470000B0B52B21C0
:1034900001244454011D0B4D04222846FDF72FFE44
:1034A00000206871832028710220A8716920E871CA
:1034B0007C20C043801C2872092128462246FFF741
:1034C00023FFB0BD381C0020B0B52B21012444548B
:1034D000011D084D04222846FDF711FE00206871E9
:1034E00088212971A871072128462246FFF70CFF81
:1034F000B0BDC046381C0020F0B581B00446252080
:10350000205C26462536002505286AD008784B78A9
:103510001B0218188B78CD782D02EB181B04181895
:10352000237965792D02EB18A579E7793F027D199A
:103530002D04EB18834257D108790B1D658C002DA3
:1035400013D02423E75C23462433B8424CD1278B85
:10355000401C18707B1B501F984200DB18462A182D
:10356000628482B2208D491D23E07C25ED436D1DD0
:10357000EFB28325B84204D12046FFF7A5FF01250D
:103580002FE08F7949790902C919C91CA8422BD1AA
:10359000208B8DB2A84227D189B2164D2427002056
:1035A000E055121F8A4200DB0A4662841540194624
:1035B0002A46FFF70BFC2085218B628C01258A426D
:1035C0000FD3E18C88420FD1062030700020608438
:1035D0002A20205C012804D12046FFF757FF002055
:1035E0003070284601B0F0BD052030701020FDF786
:1035F000B9FDC046FFFF0000F0B589B00446037274
:103600002020205C2646203603280CD00F462A2195
:10361000615C25462A35002915D020463946FFF73A
:103620006BFF002874D1D848062101720421317043
:103630007A21C9433A314022A1540830E061002088
:10364000A076E0825EE00892042809D12B200021B8
:103650002154A176E1822970B1803160E068E06197
:10366000581E1A460023191A414188000790411C30
:103670000898814238D804910692012A059305D111
:10368000201D04223946FDF73AFD059BE08A0028FB
:103690000BD00698012821D120461230211D04228A
:1036A000FDF74CFD059B002818D00325079A10460E
:1036B00028430899884217D8B8180390B8567A2139
:1036C000C9437A3149B2852288423FDDAE480421A0
:1036D000017231703A32402162540FE00220079AA1
:1036E00010430899884215D9A74885210172042101
:1036F00031707A21C9433A314022A1540830E06147
:10370000A376E38201202083217A2046FFF720FE62
:1037100009B0F0BD2120205C0699884249D130785B
:10372000012854D10698012800D080E0211D0422F0
:10373000384603921D46FDF701FD079A2B460028E7
:1037400075D09148062101720399D1E70292069A39
:10375000012A14D1307801281DD1201D21461231B3
:1037600004220190FDF7EAFC069A002807D003988E
:1037700000780299491CC9B2884200D0EAE030784A
:10378000012808D1012A7ED1039800780299491CAA
:10379000C9B2884277D1049978184078795C0902D7
:1037A0000F18208AC01E87421FDD7748057204214A
:1037B0006CE07A20C04301460831734A117204213B
:1037C00031703A30402160540832E26198E706983F
:1037D000012854D12B2000212154A176E1822970A7
:1037E000B1803160E068E06192E703980078812859
:1037F00004D0862853D0832800D095E0012A59D1DF
:10380000251D62497944042228460492FDF796FC5E
:10381000002807D05E49794404222846FDF78EFC33
:10382000002847D158480B21017204992EE0B9189D
:10383000B85CA27E904222D10898049A851AE08A48
:10384000228B121A954200DB1546AFB2E2691018BE
:10385000491C3A46FDF753FC0699012908D1E08A34
:10386000E1690918E08C3A46FFF7B0FA0699E0845E
:10387000E08A4019E082A07E401CA07640E04248E9
:103880000421017234E74048042101723170029A28
:103890003A32402162540830E0610598D0E6012AAE
:1038A00042D1201D3B49794404252A46FDF746FCB8
:1038B000002863D008980799451AF81C854200DB58
:1038C00005460890AFB2E06903993A46FDF717FC48
:1038D0000699012906D1E16900203A46FFF776FAF8
:1038E0000699E0842120215408982083E5820598D8
:1038F000A07620461230211D0422FDF700FC069917
:10390000E08A012902D1218B059B07E0218BCA1C8B
:103910008242059B02D21C480321E7E6884213D26B
:10392000636301203070F3E617480121017204221D
:103930003270029B3A334022A3540830E0610020E9
:10394000A076E0822183DFE6022030702046FFF778
:10395000BDFCDDE60C4C042220460199FDF7CFFBAF
:103960000598607102983A3020710122A2710620F8
:10397000E07108212046FFF7C7FCC9E602480B2189
:103980000172357083E7C046381C0020E92800002A
:10399000DB2800004B28000080B50449794404224C
:1039A000FDF7CCFB0021091A484180BD51270000DA
:1039B00080B52A22835C02462A32002906D0002BD9
:1039C00008D101211170FFF761FD80BD012B01D1EC
:1039D0000220107080BD000070B504462A20205CD3
:1039E000002809D0012824D02520205C062820D1D9
:1039F0002B20205C00281CD12020032525544020AA
:103A000021540020A076E261E08223832120215C02
:103A10002546213503290DD1084E3078002808D0DD
:103A2000032100E029782046FFF792FC3078002837
:103A3000F8D170BD2046FFF78BFC70BDC81B00207D
:103A4000024900200860024908607047C81D002034
:103A5000C41D002010B50748002444704F21017098
:103A6000012181700221C1700421FFF743FA204631
:103A700010BDC0460018002070B582B06D4600240D
:103A80006C704F262E700220A8700320E8702C71F5
:103A900005212846FFF72EFA6C702E700120A870C1
:103AA000E87004212846FFF725FA204602B070BDD1
:103AB00010B582B001A8002444704F21017001218B
:103AC00081700221C1700421FFF714FA204602B070
:103AD00010BD0000B0B582B0144800240460144842
:103AE00004606D464F2028706C700520A87004207B
:103AF000E870012028716971AC71012A05DC002A87
:103B00000AD0012A0AD1042006E0022A03D0032A9F
:103B100004D1022000E00320694688716846C37121
:103B20000821FFF7E7F9002002B0B0BDC81D002052
:103B3000C41D002010B582B06846002444704F2296
:103B40000270052282700422C2700122027141714A
:103B50008471C4710821FFF7CDF9204602B010BD71
:103B6000B0B582B00D466846002444705021017003
:103B700003218170C5704021017144710621FFF756
:103B8000B9F9280601D5074800E0054801687F22F9
:103B900015400122AA400A430260204602B0B0BD8F
:103BA000C81D0020C41D0020B0B582B00D46684677
:103BB000002444705021017003218170C570802160
:103BC000017144710621FFF795F9280601D50748D0
:103BD00000E0054801687F2215400122AA40914378
:103BE0000160204602B0B0BDC81D0020C41D0020E9
:103BF000080601D5054800E0034802787F2001400F
:103C00000120884010407047C81D0020C41D0020BE
:103C100010B582B06846002444704F220270022220
:103C200082700322C27001710521FFF763F92046FB
:103C300002B010BDB0B582B01C4615466846502291
:103C40000270C170202101714371D91C8170090A71
:103C500041700621FFF74EF928462146FFF74AF941
:103C6000002002B0B0BD10B582B068460024447098
:103C70005023037003238370C1703021017142719E
:103C80000621FFF737F9204602B010BD70B5044693
:103C90000220002C13D015460E464D2081002046F0
:103CA00001F098FF002E02D0112000012650FC20C8
:103CB0000121215425702046FFF7C2FE002070BD6F
:103CC00070B50446FC2001212154452080002518B0
:103CD0001720C643A8198069002806D04068FEF75F
:103CE000BFFE02462179204690470836F2D1204691
:103CF000FFF7DEFE2046FFF7ADFE002070BD034655
:103D00000220002A08D00020022B05D8D80008186D
:103D10004521890042500020704780B5FFF7ACFE76
:103D2000002080BDF0B581B00C46054645208700D7
:103D300000262846314600F075F9002807D0E859DA
:103D40000068FEF78DFE0246284621469047083758
:103D5000761C032EEDD1002001B0F0BDF0B581B08E
:103D60000C4605464520870000262846314600F0CF
:103D700059F9002807D0E8594068FEF771FE02465D
:103D80002846214690470837761C032EEDD10020A7
:103D900001B0F0BD70B504462120C600A519284623
:103DA00000F097FBF4200121215087204000205A89
:103DB000F8216050A15D1F200840022808D001288A
:103DC0000BD000280ED12046294600F039F90EE02C
:103DD0002046294600F0F7FA09E02046294600F07F
:103DE000CDFA04E0802001402046FFF7B9FE002014
:103DF00070BDF0B583B002920446019100291DD038
:103E00002546FC354520860000272046394600F02F
:103E100009F900280DD0A0598069002809D0297817
:103E2000032906D1FEF71CFE034620460199029A9B
:103E3000984708367F1C032FE7D134E0F420205840
:103E4000032830D1902020588C21615822468C3292
:103E500081420AD9091A1160814200D301468AB20F
:103E60002046029900F0FCFD1DE02646FC36452068
:103E7000870000252046294600F0D4F800280BD002
:103E8000E0590069002807D03178032904D1FEF7F2
:103E9000E7FD01462046884708376D1C032DE9D110
:103EA000204600F0E4FD002003B0F0BDF0B581B085
:103EB0000446009100291CD02746FC374520850088
:103EC00000262046314600F0ADF800280CD060599D
:103ED0004069002808D03978032905D1FEF7C0FDD4
:103EE00002462046009990470835761C032EE8D1FB
:103EF00050E0F4202058022844D1E069256AA84205
:103F00000BD913210A01A1584919A150401BE061A6
:103F100082B2204600F096FD34E0A669304629467C
:103F200001F046FEAE420FD300290DD1F8202058F3
:103F30002746F837864207D20025204629462A46DA
:103F400000F080FD3D601DE02646FC3645208700E0
:103F500000252046294600F065F800280BD0E059DE
:103F6000C068002807D03178032904D1FEF778FD16
:103F700001462046884708376D1C032DE9D12046AD
:103F800000F081FD012001026018615C012901D16E
:103F900000210170002001B0F0BD70B504469020F2
:103FA00040212150FC20012222542162452086001C
:103FB00000252046294600F035F8002807D0A059F2
:103FC0004068FEF74DFD02462179204690470836AD
:103FD0006D1C032DEDD1002070BD017400207047D1
:103FE000002070470020704770B50446FC20205C1C
:103FF000032815D14520860000252046294600F0DB
:1040000011F8002808D0A059C069002804D0FEF794
:1040100027FD01462046884708366D1C032DECD14C
:10402000002070BD02460020022908D8C8001018E0
:104030004521890041580120002900D108467047D8
:1040400080B54A78042A08DD072A0FDC052A14D037
:10405000062A1BD100F021F81DE0002A10D0012A09
:1040600017D0032A12D100F040F914E0082A0AD030
:10407000092A0BD100F0C8F80DE000F09FF80AE023
:1040800000F010F907E000F0F6F804E000F0F6FBAD
:1040900001E000F049F9002080BDB0B582B00D46C6
:1040A000044601A8002101806A88100A052813DC53
:1040B00001281ED0022827D003283CD1D0B20228E4
:1040C0003EDC002866D001286ED0022833D11120B2
:1040D00000012058C06810E006281FD0072827D00C
:1040E0000F2828D1112000012058C069002804D1D0
:1040F00021E01120000120580068FEF7B1FC0246C3
:10410000207C01A9904733E04520800020580028FA
:104110002FD0217C002925D0C06A24E0207C0028F3
:1041200009D1452080002058002804D0406B1AE0B7
:10413000207C00280FD02046294600F09FFB27E076
:1041400003282CD0042834D00528F4D111200001F4
:1041500020588069D1E74520800020580028EAD007
:10416000006B00E0806AFEF77BFC014601A88847EF
:10417000014601A80288002A0AD0E888002807D052
:10418000824200D3024601A80280204600F044FC8F
:1041900002B0B0BD1120000120584068ADE71120E9
:1041A000000120580069A8E711200001205880680C
:1041B000A3E711200001205840699EE770B504462E
:1041C000888800280BD1C888002808D148887F2516
:1041D0000540FC20205C2646FC36032803D12046FF
:1041E00000F04CFB70BDFE20255420462946FFF709
:1041F0000FFD204600F03BFC002D02D00220307065
:1042000070BD0120307070BD70B50D4604468E78CB
:10421000022E1DD2FC20215C2046FC30032907D051
:10422000022915D1002E22D066600321017009E019
:10423000002E12D06068B04219D0C1B22046FFF7FC
:104240008DFD666020463146FFF76CFD02280ED1D9
:104250002046294600F012FB70BD02210170666005
:1042600020463146FFF77AFD204600F000FC20464C
:1042700000F0FDFB70BD80B5CA88012A0AD1FC227E
:10428000825C032A09D0022A04D100218160014600
:10429000083103E000F0F2FA80BD011D012200F0B8
:1042A000BBFB80BDB0B50446FC20205CFE22024072
:1042B000022A16D10120E0604120800021582546C5
:1042C0000C350320002905D0204600F0DCFBE16816
:1042D00002200843E06002222046294600F09CFBB1
:1042E000B0BD204600F0CAFAB0BDB0B5044648885B
:1042F000012818D10D464120800001212150287944
:1043000002280DD8C00020184521890040580028F7
:1043100006D08068FEF7A4FB024620462946904757
:10432000204600F0A4FBB0BDB0B50D460446FC200D
:10433000205CFE21014002291BD1688801281CD184
:104340004120800000212150287902280DD8C0008A
:104350002018452189004058002806D08068FEF7C3
:104360007FFB0246204629469047204600F07FFB0F
:10437000B0BD2046294600F081FAB0BDB0B50D466B
:104380000446FC20205C032817D12879022814D881
:10439000C000201845218900405800280DD08068B1
:1043A000FEF75EFB0246204629469047E888002833
:1043B00007D1204600F05BFB03E02046294600F0D1
:1043C0005DFA0020B0BDB0B50D4604460878602205
:1043D00002400979202A10D102290ED8C8002018DD
:1043E000452292008058002807D08068FEF738FBED
:1043F000024620462946904769E06878002816D092
:1044000001281DD0032862D1FC20205C03281BD189
:104410006888002807D180200843802803D02046E0
:10442000FFF79EFB297902294ED8C8003FE0FC2007
:10443000205C032817D0022810D148060AD146E094
:10444000FC20205C032826D0022807D180200843C6
:1044500080283CD02046FFF783FB38E020462946E1
:1044600000F00CFA33E07F200840000120180546D8
:10447000843514300A0600D505462046FFF7B8FB00
:104480000121002800D10146296002222046294648
:1044900000F0C2FA1BE06888002818D1480613D043
:1044A0002046FFF781FB287902280DD8C00020188C
:1044B000452189004058002806D08068FEF7D0FAD0
:1044C0000246204629469047204600F0D0FA0020B8
:1044D000B0BD0A7802704A7842708A78CB781B02A5
:1044E0009A1842800A794B791B029A1882808A793D
:1044F000C97909028918C180704710B50446802126
:10450000FFF72EFB00212046FFF72AFB10BD70B5F8
:1045100082B00D46044601A9002008806946087053
:104520002A7860211140002910D0202938D16978DB
:104530000A460A3A022A33D302291BD0032919D08A
:104540002046294600F09AF9022029E069780B29D3
:1045500013D00A290ED0062922D16888000A002229
:1045600021280ED02228114616D101AE304600F087
:1045700059F80AE0694601220EE0204600F077FA79
:104580000DE001AE304600F031F801463288E8888F
:10459000824200D302463280204600F03DFA0020DD
:1045A00002B070BDF0B581B00446822103264025DB
:1045B00032462B46FFF78EFA02272046394632460E
:1045C0002B46FFF787FA204639462A46FFF74BFB72
:1045D000002001B0F0BD10B504468221FFF7AAFA11
:1045E00002212046FFF7A6FA002010BD43218900D2
:1045F000094A515C0922012905D0002906D1084940
:104600007944092204E00549794401E00022114679
:10461000028008467047C046CC1D0020F01A0000FA
:10462000041B0000F0B581B004464320800013490C
:10463000085C2221002819D001281AD10F488121B5
:10464000032740263A463346FFF744FA01250B4834
:1046500029463A463346FFF73DFA0848294632468E
:10466000FFF701FB07487844222104E0044878441E
:1046700001E000210846218001B0F0BDCC1D0020E2
:10468000C11A0000A71A0000F0B581B004468121CC
:104690000326402532462B46FFF71CFA0127204609
:1046A000394632462B46FFF715FA204639462A4648
:1046B000FFF7D9FA002001B0F0BD000080B5012954
:1046C00003D103480121FEF743FE002080BDC04610
:1046D000F41B0020B0B501290ED11446012540225B
:1046E0002946FFF7C0FA2846FCF794FD0246034826
:1046F00021462B46FEF780FF0020B0BDF41B0020B2
:1047000080B5022903D103487844FDF7FBF9002066
:1047100080BDC046D5CBFFFFB0B502291AD11446E3
:1047200002214022FFF79FFA0B4DA879002811D1F2
:104730000220FCF76FFD0246094878442146FDF748
:1047400035F9022806D1072028700120A8710348F6
:10475000006868800020B0BDC81B00207C1C0020C1
:10476000A3CBFFFF70B504468321032540262A46CC
:104770003346FFF7AFF9204629462A463346FFF76E
:10478000A9F9204629463246FFF76DFA002070BD90
:10479000002070470020704780B5032903D10348EB
:1047A0007844FDF7AFF9002080BDC0464DCBFFFF38
:1047B000B0B503291AD1144603214022FFF753FA5A
:1047C0000B4DA879002811D10320FCF723FD0246E8
:1047D000094878442146FDF7E9F8022806D10B2064
:1047E00028700520A8710348006868800020B0BDCB
:1047F000C81B00207C1C00201BCBFFFF1220088060
:10480000014878447047C046C21B0000042008805D
:10481000014878447047C046C41B00000E20088041
:10482000014878447047C046B81B00000E2008803D
:10483000014878447047C046B61B00000A20088033
:10484000014878447047C046B41B00000E20088021
:10485000014878447047C046961B00000E2008802F
:10486000014878447047C046861B00003920088004
:10487000014878447047C046F618000080B50A78B1
:1048800052B2002A02DBFFF738FE80BD4A78062AC2
:1048900013D0772A1FD01E2AF5D18A88022AF2D196
:1048A0004A88012AEFD1CA881721172A00D30A465D
:1048B0001D49794400F0B0F880BD4A88194B9A42EE
:1048C000E1D1CA881221122A00D30A461749794435
:1048D00000F0A2F880BD8A88042A09D1CA8828215C
:1048E000282A00D30A461249794400F095F880BD81
:1048F0008A88052A09D1CA889221922A00D30A46B9
:104900000C49794400F088F880BD8A88072ABAD11A
:10491000CA88B221B22A00D30A460749794400F076
:104920007BF880BDEE0300009F180000F618000021
:10493000181B0000D41800004C190000F0B581B01D
:1049400004464D2085002448002631462A46FCF7BF
:10495000ECFB224F38460C3007223146FCF7E5FBD2
:1049600014370E2238463146FCF7DFFB002C2DD0E1
:10497000194C0026204631462A46FCF7D6FB1A4938
:10498000794420463246FFF781F9184A7A44304686
:104990002146FFF7B4F90120154A7A442146FFF772
:1049A000AEF9FF2252320E480E49FEF7C7FC022034
:1049B000104A7A442146FFF7A2F9032140222046FB
:1049C000FFF751F92046FFF7A8F902E00248FFF788
:1049D00077F901B0F0BDC046CC1D0020C81B0020F7
:1049E000F41B0020761A0020241800009019000003
:1049F000BA190000DA1900006021018001487844EA
:104A00007047C0462A1A00000A21018001487844F4
:104A10007047C0467A1A0000B0B50C46F421022354
:104A200043501321090144508261C261016A9142DD
:104A300000D80A4693B2002529462246FFF7FAF825
:104A40002846B0BDB0B50C46016A914200D80A466E
:104A500093B2002529462246FFF7ECF82846B0BD60
:104A600010B500242146FFF7FEF8204610BD10B512
:104A7000F421042242500024214622462346FFF717
:104A8000D9F8204610BD10B5F4210522425000246B
:104A900021462246FFF7E7F8204610BDF0B583B067
:104AA00007466F4D28469C30202201903946FCF77E
:104AB00026FB6C4D2969A868002901D0884703E0CE
:104AC0001C21414328684018FDF7CAFF0290A868DE
:104AD000002600282B4606D01969401E002905D063
:104AE0001D46884707E03046344609E01C21414313
:104AF000186840181D46FDF7B3FF0446A8682B460A
:104B00005968491E88420FD21969401C002902D0F9
:104B10001D46884704E01C2141431D461868401883
:104B2000FDF79EFF06462B46787840280FDC2028AC
:104B30002BDC1028029F41D0202800D086E00020E6
:104B4000002F00D18AE07969002969D086E08028A9
:104B50002ADC4128029F41D0422877D10020002F33
:104B60007CD07969002979D1F968002976D15A6811
:104B7000511E002E72D0012A70D09A688A426DD0E0
:104B8000F16800296AD1306940E02128029F41D0B4
:104B900022285BD10020002F60D0796900295DD0E8
:104BA000B8202F4A11503FE08228029F48D0812828
:104BB0004CD199680020002948D14FE00020002FF7
:104BC0004CD0F968002949D0B820254A1150787E88
:104BD00000283BD09E21224A505237E00020002F6F
:104BE0003CD07969002939D1002C37D0F9680029E7
:104BF00034D19968002931D0596801292ED0E16853
:104C000000292BD16169002928D12069B821144AD3
:104C100050501BE00020002F20D0796900291DD0C2
:104C20003869B8210E4A5050387E00280ED0B42181
:104C300008221C460A4B5A529E215852234605E030
:104C400058689968421E0020914207D0DA68002A0D
:104C5000019803D002499C313846904703B0F0BD1B
:104C60002C1F0020001F0020F0B581B00546254F05
:104C70003969B868002901D0884703E01C21414305
:104C800038684018FDF7ECFE064601241E488542B0
:104C900014DD1E48854216D01D4885421BD01D4894
:104CA00085422CD13068002820D0B468FDF7D8FEAA
:104CB0000146FA68204600F031F81FE016498D429F
:104CC00009D085421BD17968B868491E0024884202
:104CD00015D2401C04E0B868002400280FD0401E04
:104CE000B8600024204600F08DF808E070680028C5
:104CF00005D0FDF7B5FE0146B06888470024204680
:104D000001B0F0BD001F0020020000800200004042
:104D1000010000400300008001000080F0B583B076
:104D200002920D460190224E0020009070600029F2
:104D300015D0214979441C2728463A46FCF7FEF94C
:104D400000280CD01D4C7C447068401C7060784377
:104D5000281821463A46FCF7F1F90028F4D10199C8
:104D6000481C05D070688842009800D30846B0609F
:104D7000356000250298F0603561284600F068F83B
:104D8000C4200C4909220A54C0200D4A7A440A5012
:104D9000BD2001220A54CC200A4A7A440A50D0206D
:104DA000094A7A440A50284600F02CF803B0F0BDB6
:104DB000001F00202C1F0020801800006E1800002B
:104DC00008170000FFFCFFFFC3FEFFFFB0B50C4D4E
:104DD0002878002811D12846BC30002424222146FE
:104DE000FCF7A3F928780C225043281810302146EC
:104DF000FCF79BF92878401C2870C0B2401EB0BD5B
:104E00002C1F0020B0B504461048017800290ED0B0
:104E1000621C8A420BD1242161434518FCF7F6FA43
:104E2000BE2000212952204600F026F8B0BD002205
:104E3000531A4B41611C521A4A411A43012A04D1A8
:104E40004178AA2901D169214170B0BD2C1F0020F1
:104E500070B52424604307490E18FCF7D7FA304692
:104E6000BC30002529462246FCF75FF9BC203554AA
:104E700070BDC0462C1F0020F0B581B00446042050
:104E8000FEF778F800283CD097283AD024206043D9
:104E90001D490C18C02020582546C0352646BE3670
:104EA00000282ED02046CC300090C4343088AA2769
:104EB000217880B2884224D2FEF728F8002820D139
:104EC000FDF794FFB84203D1FDF7BAFFB84218D1FD
:104ED000286831884901401800990968002902D0E2
:104EE0008847002807D0012803D128683188490164
:104EF000401800F0BBF83088401C30802968002939
:104F0000D6D101B0F0BDC0462C1F002080B50348AB
:104F10000068002800D0804780BDC046181F0020D0
:104F200080B503480068002800D0804780BDC04697
:104F30001C1F002080B50349794400200246FFF77A
:104F4000EDFE80BD6C17000080B503497944002058
:104F50000246FFF7E3FE80BD5817000080B5054903
:104F60000968002904D00022034B7B4400F0D8FCE0
:104F700080BDC046141F00203301000010B50C484E
:104F80000024446084600178F0220A4002700948DD
:104F90000B497944032200F023FE0748094979446C
:104FA00001600648046000F085F800F041FA10BD89
:104FB000201F0020691A0020181F00201C1F00203D
:104FC0009E16000093FFFFFFB0B5044640785328BB
:104FD00008DD60281CDC0146543902292FD36028E3
:104FE00010D03BE00146523902290BD350282ED075
:104FF000512833D11C4800780F210140002003299B
:105000002CD0B0BD1848017800200907F9D125E05F
:10501000612814D0712821D107212046FCF794FA89
:105020007D21CD0041190E48814204D3072120463D
:10503000FCF78AFA4019D8210A4A50500EE00A4873
:1050400000780F21014000200129DAD106E006484E
:1050500000780E21014000200229D2D12046B0BDA7
:10506000B80B00002C1F0020201F002080B5FCF78B
:1050700027FA80BD80B53320C100034800F0AAFDA7
:10508000FFF7A4FE80BDC0462C1F002080B5034959
:10509000794400200246FFF741FE80BDA0160000C3
:1050A00080B50349794400200246FFF737FE80BDF2
:1050B00090150000F0B585B0804D6B68804E30468D
:1050C0000A301321844A7A44FCF792FDAB683046DB
:1050D0001D304021814A7A44FCF78AFD602000247B
:1050E00034545F202E2131545E2031545D203154E0
:1050F00028780F210140022900D0BDE05D367849B3
:1051000079440A2530462A4600F06AFDC0276D4ED4
:1051100074487844F051C42004903554D02072492A
:1051200079443150CC21714878440391705001206A
:1051300000020321315441218D0074513018FDF7D4
:105140008BFE04200290FDF715FF7051FCF75EF90D
:10515000FCF75EF9BE20019034520298FDF70AFF79
:105160007051F159002933D0002831D097282FD021
:105170000198305AAA240499715C80B2884227D2DF
:10518000FDF7C4FE002823D1FDF730FEA04203D175
:10519000FDF756FEA0421BD1F0590199715A490101
:1051A000401803997158002902D08847002808D078
:1051B000012804D1F0590199715A49014018FCF7AE
:1051C0007FF90199705A401C7052F1590029D2D1CF
:1051D0000498345C0198355A3B4880210022FDF741
:1051E000A1FEA5423ED2AA25F05900282BD0BE240C
:1051F000305B0499715C80B2884224D2FDF786FE50
:10520000002820D1FDF7F2FDA84203D1FDF718FEDA
:10521000A84218D1F059315B4901401803997158DF
:10522000002902D08847002807D0012803D1F0596F
:10523000315B49014018FCF743F9305B401C3053A7
:10524000F1590029D5D10498305C02903C46019870
:10525000375A802100221C48FDF764FE02988742DD
:105260002746C1D3FBF784FF174880210022FDF7B2
:1052700059FE124D2878124E0E210140022918D1F4
:105280005D361B4979444F22304600F0A9FC0F4897
:10529000052101700120C0070D490E4A00236C68EA
:1052A000AD6804432C3015C10B604D603046FBF7F0
:1052B000F9FE00F0CBF905B0F0BDC046201F00207C
:1052C000D42000202C1F002000180020681A002085
:1052D000401A0020300100805615000051150000D2
:1052E00068160000B2160000D10100009DFEFFFF0D
:1052F000F014000080B54549884214DD44498842D5
:1053000025D0444988422FD04349884274D144482B
:1053100001780F220A40012A48D0002A6CD1F022DD
:105320001140491C45E03D4A90422AD0884263D151
:105330003B4802780F211140012931DC002951D06E
:10534000012959D10121C9078268521C47E034481C
:1053500002780F21114001292DD000294CD10121C3
:10536000C90742680A3241E02D4802780F211140F6
:10537000012925D000293FD10121C90742680A3AF5
:1053800034E0274802780F21114003291DD001295C
:1053900021D0002930D10121C9074268521E25E0E1
:1053A00002292BD0032927D11E480FE0F0221140FB
:1053B000891C01701CE00121C90782680A320EE0D5
:1053C0000121C90782680A3A09E0174800680028E5
:1053D00012D0804710E00121C9078268521E8A431B
:1053E000826005E00121C9074268521C8A4342607D
:1053F000FFF760FE00F01CF8002080BD0B497944E7
:1054000000200246FFF78AFCF6E7C0460200008053
:105410000200004001000040030000800100008005
:10542000201F0020181F00201C1F0020A6120000B3
:10543000F0B585B0C4210191324E0A207054C021CC
:105440000291314878447050D0203049794431502D
:10545000CC212F4878440391705001200002032191
:10546000315441218F000025F5513018FDF7F4FC2F
:1054700004242046FDF77EFDF051FBF7C7FFFBF744
:10548000C7FFBE2004903552019D2046FDF772FDF6
:10549000F051029FF159002932D0002830D09728CE
:1054A0002ED00498305AAA24715D80B2884227D247
:1054B000FDF72CFD002823D1FDF798FCA04203D175
:1054C000FDF7BEFCA0421BD1F0590499715A490165
:1054D000401803997158002902D08847002808D045
:1054E000012804D1F0590499715A49014018FBF779
:1054F000E7FF0499705A401C7052F1590029D3D12A
:1055000005B0F0BD2C1F002080130000A5FEFFFF9A
:1055100071FBFFFF80B509488168094A1140094BBA
:1055200000691040596098601878F0210140C81C4B
:105530001870FFF7BFFDFFF77BFF80BD401A00200A
:10554000FFFFFF07201F0020034B1960034908607D
:10555000034802607047C046181F0020141F002037
:105560001C1F002010B50C4C22600C4A11600C4925
:105570000B600C49029A0A600B4903220A704880AA
:105580000020C8800120088100F062F8216800290D
:1055900001D00020884710BDC8200020C420002072
:1055A000CC200020D0200020D420002080B504484A
:1055B00003210170C188491EC18000F049F880BDF7
:1055C000D420002080B5044803210170C188491C03
:1055D000C18000F03DF880BDD420002080B50A488D
:1055E0000021C18003210170012101810221415E5E
:1055F000012904DB491E418000F02AF880BD0348E0
:1056000001680020884780BDD4200020CC200020E5
:1056100080B50C480021C180032101700121018166
:105620000421415E4A1E41880BB29A4204DD491CA6
:10563000418000F00DF880BD0348016800208847D4
:1056400080BDC046D4200020CC2000207047000040
:10565000F0B58BB04048006800287BD00A905E20EF
:105660003E4D00222A545D203F2129540792AA77FB
:105670006977698102200690285E06210991695E9A
:105680002A4608326B462E1DC0272C465D3490C337
:10569000083B1F46083743C75A612F460A371D3556
:1056A0001321402338462A4608930A9EB0472E46C7
:1056B00038462A4D00F0CBF9304600F0C8F90A947C
:1056C000204600F0C4F908202C5E012C3FDB10D0EE
:1056D000304600F07FFB09996A5E69460C602C46F3
:1056E00037180899091A531C1E4A7A443846FCF7A1
:1056F0007FFA2878032814D0012828D1304600F0FA
:1057000069FB01461339012909DB29461D310A18B5
:105710001223DB43D25C0A70491C002AF7D1002017
:1057200014E007982870304600F054FB14280ED37C
:105730000A9C204600F04EFB1428069806DB0A4916
:1057400079441422204600F04BFA012028700448C6
:10575000006880470BB0F0BDC4200020D42000209A
:10576000D02000202C120000E0110000B0B504464B
:105770007D25280161780A46103A022A0FD3712943
:1057800010D107212046FBF7DFFEED004119064846
:10579000814204D307212046FBF7D6FE4019D821C9
:1057A000024A50502046B0BDB80B00002C1F00200C
:1057B000F0B585B0C4210191324E06207054C0214D
:1057C0000291314878447050D020304979443150AA
:1057D000CC212F487844039170500120000203210E
:1057E000315441218F000025F5513018FDF734FB6D
:1057F00004242046FDF7BEFBF051FBF707FEFBF744
:1058000007FEBE2004903552019D2046FDF7B2FBF5
:10581000F051029FF159002932D0002830D097284A
:105820002ED00498305AAA24715D80B2884227D2C3
:10583000FDF76CFB002823D1FDF7D8FAA04203D175
:10584000FDF7FEFAA0421BD1F0590499715A4901A3
:10585000401803997158002902D08847002808D0C1
:10586000012804D1F0590499715A49014018FFF7F1
:10587000FDFB0499705A401C7052F1590029D3D194
:1058800005B0F0BD2C1F002070110000C500000005
:1058900095FFFFFF80B51B4988420FDD1A498842FA
:1058A0001CD01A49884224D01949884228D11A4864
:1058B0000078012820D1FFF7CBFE21E0154A904265
:1058C0000FD088421CD106201349085E0822895E49
:1058D000491E814202DDFFF775FE11E0FFF798FED9
:1058E0000EE006200C49085E012802DBFFF75EFE91
:1058F00006E0FFF773FE03E00848016800208847D0
:10590000002080BD02000080020000400100004035
:105910000300008001000080D4200020CC20002063
:10592000B0B582B0034C7C446D462C60FFF71AFE84
:1059300002B0B0BD87FEFFFFB0B50278F823134078
:10594000F02B0DD143783F2423401B035207D20A8A
:105950009A18837823409B01D4180423032216E06D
:10596000F0231340E02B09D143783F241C40A301CE
:105970001207120C9C180323022208E0E0241440B2
:105980000123C02C07D1D206540D02230122855CCD
:105990003F222A4022430A60C018B0BDF0B5057806
:1059A0000022002D51D00146802316E0E021214045
:1059B000C0290DD14178C0263140994246D1857821
:1059C0002E40811CE406240F40D09E423BD13DE096
:1059D00021063BD44578411C35E00846F821294092
:1059E000ECB2F02916D14678C027314639408029DB
:1059F0002CD181783940994228D1C17839409942D7
:105A000024D105792F40011D9F421FD007273C401C
:105A1000302715E0F0212140E029C7D14678C02782
:105A200031463940802911D18178394099420DD1D0
:105A3000C5782F40C11C9F4208D00F273C4020272B
:105A40003E40341902D0002DC7D11046F0BD80B5BC
:105A5000014600F001F880BD70B582B00C460546E5
:105A6000007800280E4618D026462846FFF796FFF5
:105A7000002812D10020019001A92846FFF75CFF01
:105A8000054601980246203A2E21602A00D3084696
:105A900030702878761C0028E7D100203070301B49
:105AA00002B070BD002243088B4274D303098B42BD
:105AB0005FD3030A8B4244D3030B8B4228D3030CDE
:105AC0008B420DD3FF22090212BA030C8B4202D380
:105AD0001212090265D0030B8B4219D300E0090AA8
