:02000004C0D06A
:1000000010B58CB062B604F0CFFF01F02DF801AC52
:10001000204605F09DFD2085000403D001A80021A5
:10002000018506E001A801F022F800F03FFE00F093
:100030004BFE01F0D6F901A9884203D101F0D3F9B2
:1000400001F015F801A8008D002802D100200CB0A5
:1000500010BD01F0C2F90000F0B585B0E34D28787D
:100060000C2829DC05286ED00C2800D0D4E0FE4CEA
:100070000026E661012020762046183003F07CF946
:10008000E06102F035F8E069F84FB84200D122E2B1
:10009000002800D11FE2F649884200D0A8E101F013
:1000A00001FB01F005FBA660E069B84200D112E255
:1000B000002800D10FE20FE10D2869D00E2800D0F2
:1000C000AAE0E94C0026E66101202076204618309F
:1000D00003F052F9E06102F00BF8E569E44885426B
:1000E00000D020E101F0DEFA01F0E2FA0020A06089
:1000F000E169DE4A914200D1EDE100291FD1EAE138
:100100006168884200D3E6E103F0C0F9002800D01E
:10011000E1E1A068E16838256843226810180029E9
:1001200002D08847002807D0012803D1A0684543A2
:100130002068401904F034FFA068401CA0602168CA
:100140000029DDD1C7E1C84C0026E66101202076F8
:100150002046183003F010F9E06101F0C9FFE069B2
:10016000C24FB84200D1B6E1002800D1B3E1C04986
:10017000884200D07EE101F095FA01F099FAA6607C
:10018000E069B84200D1A6E1002800D1A3E1C6E0B1
:10019000B54C6068A168814201D20120207600251B
:1001A000E5612046183003F0E7F8E06101F0A0FFB8
:1001B000E069AE4EB04200D18DE1FC49884200D1E9
:1001C00092E1002800D186E12068002800D17CE17E
:1001D000A0686168884200D377E103F057F90028EE
:1001E00000D072E1A068E1683825684322681018E1
:1001F000002902D08847002807D0012803D1A06831
:1002000045432068401904F0CBFEA068401CA06064
:1002100021680029DDD158E1E34C0025E56101208A
:1002200020762046183003F0A7F8E06101F060FF67
:10023000E069DE49884200D0AFE001F033FA01F016
:1002400037FAA560E069DA49884200D143E1002825
:100250001FD140E16068854200D33CE103F016F90C
:10026000002800D037E1A068E1683825684322689B
:100270001018002902D08847002807D0012803D190
:10028000A06845432068401904F08AFEA068451C18
:10029000A56020680028DDD11DE16068864200D39A
:1002A00019E103F0F3F8002800D014E1A068E16838
:1002B0003825684322681018002902D08847002892
:1002C00007D0012803D1A06845432068401904F0F5
:1002D00067FEA068461CA66020680028DDD1FAE011
:1002E0006068864200D3F6E003F0D0F8002800D022
:1002F000F1E0A068E16838256843226810180029F9
:1003000002D08847002807D0012803D1A0684543C0
:100310002068401904F044FEA068461CA6602068CE
:100320000028DDD1D7E06069002807D064280146A5
:1003300000D36421401A606100D101E19C488542EC
:1003400000D1C8E0002D00D1C5E02068002800D110
:10035000BBE0A0686168884200D3B6E003F096F87D
:10036000002800D0B1E0A068E16838256843226821
:100370001018002902D08847002807D0012803D18F
:10038000A06845432068401904F00AFEA068401C9C
:10039000A06021680029DDD197E02068002800D105
:1003A00093E0A0686168884200D38EE003F06EF8A5
:1003B000002800D089E0A068E168382568432268F9
:1003C0001018002902D08847002807D0012803D13F
:1003D000A06845432068401904F0E2FDA068401C75
:1003E000A06021680029DDD16FE0C0460018002020
:1003F000A088049020680390EB79AE796A792F7910
:10040000ED78E1686846056041603802801882B284
:100410003002C01883B20398049901F0C1F9206832
:10042000002852D0A068616888424ED203F02EF8AE
:1004300000284AD1A068E16838256843226810186E
:10044000002902D08847002807D0012803D1A068DE
:1004500045432068401904F0A3FDA068401CA0603B
:1004600021680029DFD130E0641F0020445010B023
:10047000555010B02069002803D0E978490801F0F0
:10048000DBFA2068002820D0A068616888421CD26E
:1004900002F0FCFF002818D1A068E1683825684305
:1004A00022681018002902D08847002807D00128A8
:1004B00003D1A06845432068401904F071FDA0688D
:1004C000401CA06021680029DFD16068A1688142DA
:1004D00001D302F0DBFF02F0D9FF002801D100F0C8
:1004E00089FF012005B0F0BD01F0DCF801F0E0F873
:1004F000A560E069B042EED00028ECD01CE0606856
:100500008542E8D202F0C2FF0028E4D1A068E16889
:100510003825684322681018002902D0884700282F
:1005200007D0012803D1A06845432068401904F092
:1005300037FDA068451CA56020680028DFD1CAE708
:100540001B4FBD42C7D0002DC5D001F0ABF801F064
:10055000AFF8A660E069B84200D1EFE600281FD1ED
:10056000ECE66068864200D3E8E602F08FFF0028E0
:1005700000D0E3E6A068E1683826704322681018CE
:10058000002902D08847002807D0012803D1A0689D
:1005900046432068801904F003FDA068461CA6604D
:1005A00020680028DDD1C9E6641F0020555010B036
:1005B000445010B0B0B5054607202840002401285B
:1005C00012D0022812D1002907D00A4802F048FFB1
:1005D000280609D502F0A6FD06E0FF2152310548A4
:1005E000002202F069FF04462046B0BD022000F060
:1005F000F4FEC046841A0020B0B50546581C90424F
:1006000011D80C460948C25C2A70511EC9B20A2989
:1006100009D2C018411C204605F00AFA28780021AA
:1006200021540120B0BD024800F0D7FE841A0020FA
:1006300084690000F0B581B004292DD90C461A4F09
:10064000F8780090BE78012E19D1154602F04CFFC3
:1006500002F05AFF002D12D0062C1DD378791449D0
:1006600008700A2818D88200501C401DA04213D8D8
:10067000B91D104805F0DCF90098411E08E0781D0E
:10068000641F214602F044FFA04209D10098311AAC
:100690004842484101B0F0BD0448401C00F09DFEB6
:1006A000024800F09AFEC046841A002083690000C8
:1006B000681A0020401A0020F0B587B01F46069245
:1006C0000E460446109D02F071FF2880119A002109
:1006D0001180288800B2012841DB334605970F9925
:1006E00003910E9E0D9902910C9D1E4FF97D0229DA
:1006F000049208D0012912D169460860701C01904B
:10070000194A7A4405E069460860701C0190174A4E
:100710007A4420461946019B01F0ECFC05E0144A9E
:100720007A442046194601F0E5FC0024069804703E
:100730002C70FD60786002983882059838810398A3
:1007400078803C8002F0EDFE054602F0E5FE0146B1
:1007500028462246334602F02FF90498018808B251
:1007600007B0F0BDF81D00205A5500006355000089
:100770006C55000070B5A8B000240294244800789D
:10078000002841D12348027868460460212022498C
:1007900003AE334602F0C0FD15A80BAD2946324624
:1007A00000F086FB2021304605F03CF902F0B9FE4E
:1007B000064602F0B1FE01466846456002AA0260A4
:1007C000FF235233154D30462A4600F089FB02992B
:1007D000CAB2AA18012809D1547090201070881C40
:1007E00081B2202001F082F9204609E001205070FA
:1007F0006F201070881C81B2202001F077F9002052
:1008000004F040FB28B070BD6D20000200F0E5FD53
:10081000741A0020681A0020401A0020841A002050
:1008200080B506488621417069210170202002218F
:1008300001F05CF9002004F025FB80BD841A002043
:10084000F0B581B0009316460B9A0A9B002B01D09D
:1008500001241C80089F069D002A01D001231380DB
:100860001F22D2060D4CA36893430E4A7A4401F02E
:1008700041FC0D4A7A44304600993B4601F03AFC6F
:1008800007480078800020180321C94347502846B4
:1008900000F0C2FB002001B0F0BDC046401A0020AD
:1008A000681A0020295400002C540000F0B581B0D3
:1008B000374C20461D303A4979440A2205F0B8F8F1
:1008C0005D34384979440B22204605F0B1F804F034
:1008D00075FB304E7568B7682F4880210022009262
:1008E00002F0EAFDAF422DD22B4D3068002820D017
:1008F000B068716888421CD202F0C8FD002818D187
:10090000B068F1683827784332681018002902D09F
:100910008847002807D0012803D1B06847433068D2
:10092000C01904F03DFBB068401CB060316800297C
:10093000DFD17768B46880210022284602F0BCFD30
:10094000BC42D2D300F056FD13488021009C2246C1
:1009500002F0B2FD114D284600F048FB2E4621362C
:10096000304600F059FB304605F00CF901462131C4
:10097000C9B290226A5469184C70233081B2202089
:1009800001F0B4F8204604F07DFA01B0F0BDC04695
:1009900024200020641F002000180020841A00205A
:1009A000F4530000F453000080B5064886214170DE
:1009B000692101702020022101F098F8002004F044
:1009C00061FA80BD841A0020F0B59FB016460C462F
:1009D000054614AF384605F0BBF8388581B20029CA
:1009E00012D0102900D19DE014AA002313850F22F4
:1009F0001203024009231B039A4203D003235B0323
:100A00009A4274D1090A75E014A800F030FB7C49C1
:100A10000878552800D0A7E0042E00D8A8E0487830
:100A200003281FDC022800D082E0764800210170F4
:100A300001223146FFF7FEFD002800D190E002F0D0
:100A400075FD002800D0C7E002F08AFD7A4878449E
:100A50007A4979447A4A7A4404F0C2FC002004F0CE
:100A60001BFA3FE0042800D0C6E00F46674C6849F7
:100A7000052320463246FFF7BFFD2078C11DB14255
:100A800000D9A6E03B46801D3F5C62490F700A2FEB
:100A900000D99EE0BA00511C0918B14200D998E073
:100AA0001818411C5C4C204604F0C2FF052F00D0F2
:100AB0008FE020685A49884200D08AE06068574930
:100AC000884200D085E0E068002800D081E05748E7
:100AD000784457497944574A7A4404F081FC00200D
:100AE00004F064FC28681021014329600BE04105F3
:100AF000490F68312268424B99542168591848704F
:100B00002068801C206000F06CFC14A9884203D18E
:100B100000F069FC00F0ABFA14A8008D002869D140
:100B20001FB0F0BD14A800210185102000F055FC75
:100B30000D46002820D100212A46E9700120A87026
:100B4000697029703749CA693749511A4B1E994152
:100B5000002A00D11046484028712068401D2060BE
:100B60000920000300F039FC3720400200F035FC7A
:100B70006720000200F031FC01283DD1062E28D369
:100B80006F79244807700A2F23D8BA00501C401DE3
:100B9000B0421ED8A91D204D284604F049FF052F5C
:100BA00017D128681E49884213D168681B498842BA
:100BB0000FD1E86800280CD101AD284600F0FCF9FF
:100BC00008350F484122294600F035FB20684130A6
:100BD000C5E70D4800F001FC064604F0D3FF0546CA
:100BE000074831462A4600F026FB2068401920605D
:100BF0000548FC3000F0F1FB6D20000200F0EDFB39
:100C0000841A0020741A002084690000751A0020DC
:100C1000691A0020681A0020401A00203001008064
:100C20002C000080641F0020445010B06DFDFFFFB9
:100C3000D5FDFFFFCDFEFFFF67FCFFFF1FFDFFFFA0
:100C4000C7FDFFFFF0B581B0052A0AD30C46154D4C
:100C50001549794404262846324600F0A9FB0028AD
:100C600001D001B0F0BDEE700027AF7010206870A9
:100C7000312028706E1D40210091304602F0A8FB03
:100C80002871C0B237543718BE1C3046009902F0A4
:100C9000B7FB7870C0B23018401B206009200003F9
:100CA00000F09BFB841A00207150000010B500F08A
:100CB000D1FC0024204604F029F8012004F026F895
:100CC000204604F0DFF810BD90B000250F950E957A
:100CD0000D952C4E2A4F0CA8058001AC204604F03F
:100CE00037FF208501041ED001A90D850F210903BE
:100CF000014009221203914207D00322520391427C
:100D000003D038400D21C90240180CA908800C9866
:100D1000000A0E9970540C980E99711848700E982C
:100D2000801C0E901AE001A800F0A1F90E980F9017
:100D30000E950D980F99C0B289B200F0D7FE0F90B2
:100D40000D950F98002818D00F9A0EAC2146FFF78A
:100D500079FF0F9A0DA82146FFF736FE00F041FB00
:100D600001A9884203D100F03EFB00F080F901A800
:100D7000008D0028AFD000F030FB034800F02DFBC1
:100D8000FF070000841A002082690000F0B5A5B0BA
:100D9000054600202870802B14D816460C46049077
:100DA000694608220B604A60886005AF04A90522E5
:100DB0003846334602F046F9049B284621463A4617
:100DC00002F0C0F825B0F0BDB0B5094C0025E580B3
:100DD000A18020600748C58083800260217A0122BB
:100DE0000A432272017AFE220A400272B0BDC04656
:100DF000801800208C18002006480021C180064A77
:100E0000D180017A01230B430372107AFE21014045
:100E100011727047801800208C18002070B50C46A5
:100E200005461C4E307AC10707D11B4EF088B188A9
:100E3000091AA1421ADA002429E0F188B288521A6C
:100E4000A2421ADAFE22104030721348027A0123BD
:100E500013430372002902D03068FFF7DFFF2846F2
:100E60002146FFF7DBFF0021F18070BD31680818D3
:100E70002946224602F06AF905E030684018294602
:100E8000224600F0D8F9B01D0188091901802046DA
:100E900070BDC046801800208C1800200248017ADE
:100EA000C90700D101487047801800208C18002025
:100EB00070B513460C4605462126202230461946B9
:100EC000234602F0BFF9002130460A462B4602F0C5
:100ED000A1F9012330462946224602F0CBF970BD24
:100EE000F0B5A7B0089306920F4606462D980590D8
:100EF000012421022E4D284602F074F920210A9186
:100F0000684641601FA90791016028462146324684
:100F10003B4602F049F9212600270CAD3046394600
:100F20003A462B4602F076F930462946059D2A4678
:100F300009942346069C02F09DF90B970BAE684678
:100F40000A9912C00899016046601A49032228468E
:100F50000892079B02F0A6F92C99079108602DA82A
:100F60000422394600F05EF9271DE578212D01D0D5
:100F7000394600E0611D60194079059036782046B9
:100F80000A9A00F058F978190599212900D1401CD6
:100F9000811C204620300A9A00F04DF9089806403E
:100FA00040202654412007990860099827B0F0BDD9
:100FB0009818002001060000B0B594B00446094816
:100FC00002780020694608602120074902AD2B46BF
:100FD00002F0A2F90AA920462A46FFF769FF14B0D9
:100FE000B0BDC046681A0020401A0020B0B594B0C9
:100FF000044601AD2846FFF7DFFF4820285C0121A9
:101000000140881C2872083521222046294604F018
:101010000FFD14B0B0BD0000F0B59FB0039004AD5B
:101020002846FFF7C9FF012631020D4C204602F089
:10103000D9F8059820216A46516017AF1760093525
:10104000431E204631462A4602F0AEF80C370549C9
:10105000142303983A46FFF799FE1FB0F0BDC0462F
:1010600098180020691A00200020814670478146A8
:1010700070470000F0B581B014460090624FB9424D
:1010800034D00E4640253846294604F0CBFC402C8F
:10109000204600D32846BE4216D2002826D0402043
:1010A000C14308464030031B8B4200D80B463F31FA
:1010B000CA1AB118544DAA185B1C0D78157009187E
:1010C00012185B1CF9D111E000280FD04020C0435A
:1010D00001464031091B814200D80146481C317845
:1010E0003970401C7F1C761C0028F8D1464EB07821
:1010F00001280ADC00282FD0012878D1F01C042117
:1011000002F03AF84021304632E002282ED005287D
:101110006DD13079F178090208183C4D2968002713
:1011200088426BD12868002826D0641FA0B23849B5
:101130000A68824201D20C68A0B236490968721D61
:1011400091423ED9220445D04139403132181279BA
:101150000A54401EFAD13EE00027B771777137710B
:10116000F77040213046009A904747E026484021DA
:10117000009A9047002741E0B07971790902091877
:101180002548016001684908A82937D80168204826
:1011900001607178327812025118204A11601D499D
:1011A0001F4B0B60E41FA2B20168914201D2046898
:1011B000A2B2F11D8B4220040CD0194804F038FC77
:1011C00009E0230406D013780B70491C521C401E02
:1011D000F9D100E00024A0B20D490A68121A0A6091
:1011E0000C490A68101808602868401C28600848E4
:1011F0000068002801D0012703E0022703480021EE
:101200000160384601B0F0BD981C0020781A00201B
:10121000801A0020D81B00207C1A0020DC1B002034
:10122000841A002080B5002A04D00B4611461A46C5
:1012300004F002FC80BDB0B5884208D9002A0FD066
:10124000491E401E8B5C8354521EFBD108E0002ACD
:1012500006D000239CB20D5D05555B1C521EF9D1D2
:10126000B0BD00000148002101607047781A0020DD
:10127000F0B581B03B4F396800291DD000903A4C41
:10128000661D39253046294604F0CCFB0520A070A8
:1012900036480168090A21700068607034480168A6
:1012A000090AE1700168217102683968002A0BD0CF
:1012B0003B2920D93B251FE02D48002101602D4806
:1012C00001602D4801704AE0392900D83D6839682D
:1012D000090A61713968A17126490968E21D9142C4
:1012E00024D2002D2DD04A1E2B46D65CE0188671E4
:1012F0005B1EFAD125E03D681E480168B14209D263
:10130000002D1ED04A1E2B46D05CE61830715B1EA5
:10131000FAD116E0002D14D000222B4690B20E5CBC
:1013200020184671521C5B1EF8D10AE0002D08D02F
:1013300000222B4690B20E5C2018C671521C5B1E18
:10134000F8D14919009A0A4B3868401B386009489F
:1013500001601868401C186003484021904701B0A4
:10136000F0BDC046801A0020981C0020DC1B002025
:10137000781A0020D81B0020F61B002080B5002919
:101380000BD0064A00231360054A1160054A064B3C
:101390001360064A1160FFF76BFF80BD781A0020CA
:1013A000801A0020D81B0020841A00207C1A0020FC
:1013B000B0B5401E491E002A0AD0551E8B5C845CC5
:1013C0009C422A46F7D09C4204D80020C04302E049
:1013D000002000E00120C0B2B0BD0146484604F044
:1013E000C3FB484670474846002801D04069704713
:1013F0000020704780B502F049F8002800D080BD79
:10140000064800210171C170022282704170602182
:101410000170052102F024F880BDC04600180020AC
:1014200010B51948C078032807DC01280DD0022820
:1014300026D1164802F0FAFF10BD04281DD0082856
:101440001ED1124802F0F0FF10BD104C01212046C1
:1014500002F0E5FF204602F0C2FF0D4800780028A8
:101460000FD10C48002407222146FFF7DBFE0A4873
:101470000E222146FFF7D6FE10BD044802F0D2FF2F
:1014800010BD1020FFF7A9FF00180020181E002033
:10149000E01B0020E11B0020E81B00207F21014011
:1014A0000148405C7047C046E11B002010B514485D
:1014B0000179042916D0022906D001291ED1811DE7
:1014C000114802F08EFE10BDC2787F21114006291E
:1014D00014D84A000D4B00249C52821D0A4802F089
:1014E00009FF10BDC2787F211140062906D8427934
:1014F000044B5A54821D044802F0A2FE10BDC0469F
:1015000000180020E11B0020181E0020E81B00200E
:1015100070B5FF2A1DD815460E4604460D48427187
:10152000202101715021017080212143C170D11C03
:101530008170090A4170062101F092FF3046294668
:1015400001F08EFF7F20204040007D210901024AEA
:10155000115270BD00180020E81B002080B50A461B
:10156000014682201423FFF7D3FF80BD80B50A46D1
:10157000014683201423FFF7CBFF80BD80B50E48C2
:101580000178002900D080BD0C4906220A700A218A
:1015900001700B488178427812025118FF225232B2
:1015A000914200D31146074A11801288C11C064897
:1015B000FFF741FE80BDC046F61B0020E01B002067
:1015C00000180020F81B0020841A002080B51E4956
:1015D00088784A781202101809780F2909DC0E2938
:1015E0000FD00F291ED1012822D1FFF719FF0120AA
:1015F00080BD10291AD0162914D1FFF7BFFF012092
:1016000080BD0C211148425A002A07D0642A134693
:1016100000D36423D21A425212040FD08A1E00292A
:101620001146F0D10220FEF717FD80BD032801D23C
:10163000002080BDFFF73AFF012080BD0448002153
:1016400001701020FFF7C9FE00180020E81B0020E1
:10165000F61B002010B5092001F04EFD09480024BA
:101660000470094804800948094901600948047068
:10167000FFF7F8FD08480460084804600848046063
:1016800010BDC046F61B0020F81B0020442100209E
:101690003100ADDEE01B0020FC1B0020001C002000
:1016A000041C00200148002101607047FC1B002041
:1016B000024800210160024801607047001C0020C0
:1016C000041C0020B0B50D460446006B00280BD06A
:1016D00001F0FCFB01462046884701F0F7FB00289B
:1016E0000FD0012800D00446002D06D02046A84780
:1016F000002806D0012800D00446204603F050FC04
:101700000120B0BDB0B58EB00D460446406B002838
:101710000BD001F0DBFB01462046884701F0D6FBE9
:1017200000281AD0012800D00446002D07D02046FA
:10173000A8476C46002810D0012800D004466D460A
:10174000382228462146FFF776FD606AA16A049098
:101750000591284603F024FC01200EB0B0BDB0B5C1
:101760000D460446C06A00280BD001F0AFFB0146CD
:101770002046884701F0AAFB00280FD0012800D09E
:101780000446002D06D02046A847002806D0012890
:1017900000D00446204603F003FC0120B0BD000049
:1017A000F0B589B004930692089000297DD00C46CC
:1017B0000F9802900E98019000253F4B05952E46FC
:1017C0001F4601F063FE00285CD138206843089969
:1017D0000D183B4639688D4201D1012105910899C8
:1017E0000856002849DA2020285C0221695E07900B
:1017F0000A1A2046069CA24204463EDC079841187D
:10180000EA888918069A914237DD0421695E0798B3
:1018100003910A1A04998A422FDC07980399081841
:10182000298940180499884227DD1868854210D01C
:10183000186800280DD00298002805D02846029983
:1018400088473B46002818D018680299FFF73AFFEE
:1018500008E00198012809D002280ED128460299F3
:10186000FFF77DFF3B46002807D020E0284602997D
:10187000FFF748FF3B4600281CD1761CF5B2A54275
:101880009ED300E03B46059800060ED0186800285D
:101890000BD001F0FBFD002807D138680299FFF753
:1018A00011FF002801D00020386009B0F0BD0020F1
:1018B0001860FAE71D60F8E7FC1B0020F0B589B05E
:1018C0000C46014602AD1C2228460192FFF7B3FCEC
:1018D00006CC2068E9802A81194F65233E463B707B
:1018E00089B292B24A4342435107D208083C0029C8
:1018F00000D0521C009204278740B8181D30B070E9
:10190000000A70700321304601F0AAFD28460199B3
:1019100001F0A6FDA06830700121304601F0A0FD65
:10192000E06801F0D3FAB9B201F09AFD009885B2EF
:10193000206901F0CBFA294601F092FD09B0F0BD13
:101940000018002070B50446067801F09FFD0028BD
:1019500032D17F200640002E2ED0E06900281DD015
:1019600001F0B4FA0546052E02D1A07E002824D04D
:10197000284604F007F906461248652101703146F1
:101980001C318170090A4170032101F069FD1C219D
:10199000204601F065FDB1B228460BE009481C2540
:1019A00085700021417065210170032101F058FD0F
:1019B0002046294601F054FD70BD20462946FFF718
:1019C0007DFF70BD0018002080B50A46C16900F097
:1019D00001F880BD70B5002500281ED016460446CB
:1019E0000078072801D0022817D1084601F06EFAC6
:1019F000002812D004F0C6F84643E08886420CD98D
:101A0000311A7D2000014843A17E03F073FFA17AC3
:101A10004906090E64224A431518284670BD000085
:101A2000044800218170417046210170032101F0BA
:101A300017FDFEE70018002070B500282BD00446E3
:101A4000154802688A4203D1144A13685B1C13606C
:101A500005680D43114A1668002901D0056005E0AC
:101A60000023036013600E4B5B1C1D43006888421B
:101A700001D000201060082E0AD30321304603F065
:101A8000BFFF0120002901D181070D43C007854315
:101A900028463146A04770BD001C0020041C0020D1
:101AA000FFFFFF7FF0B581B00F4E01243470B11CF1
:101AB000FF2750377A1C204601F0BAFC05467070AB
:101AC0003A1A3718F91C022001F0B2FCB8702D1830
:101AD0007619F47001F066FC0021B17190217171EA
:101AE0003071E81D01B0F0BD841A0020F0B589B056
:101AF000024688480068884B984200D005E15007AC
:101B000008D008920898C0B289B2FEF753FD80B29F
:101B100009B0F0BDA52040000390804D8548784471
:101B200001907F487F4F824E0892102313408CB261
:101B30000694002C00D18EE0002B00D08BE00491A5
:101B4000297809290792059337DC07293CD0092910
:101B500056D100210446029102F052F908E0FFF745
:101B600049FC80210022384601F0A6FCFFF72EFD3B
:101B7000204602F058F90028F1D00398069A8242D4
:101B800000D9C4E09020684C2146A054A018029CC3
:101B90004470481D049A921C92B2FFF74CFB052238
:101BA00061482146FFF73EFB0498C01D83B28321A4
:101BB0005B485D4A02F04AF935E00A2909D00B2951
:101BC00020D15D48784400E001980699FFF7D6FBE4
:101BD00029E00398C01D069C844200D997E004992F
:101BE000B97053203870080A78700321384601F024
:101BF00037FC4D48214601F033FC0020287012E0EC
:101C000000297FD00898C0B20699FEF7D3FC0028BF
:101C100009D077E0FFF7EEFB80210022384601F083
:101C20004BFCFFF7D3FC28780028F3D10020287064
:101C30003E49087030800799890600D567E7FFF7AD
:101C4000D9FB079A1006059B05D501201C4601F01B
:101C50007DFB2346079A002B05D150064FD4002068
:101C60002870324908700020308001F00FFC0028F5
:101C700001D1FFF7BFFB802100243846224601F046
:101C80001BFC022806D8B9787A7812025118C01EB7
:101C9000884208D1FFF79AFC28780028E5D03088E0
:101CA0000028E2D002E000202870DDE723497944D3
:101CB00004221D48FFF77CFB002813D020497944FB
:101CC00004221948FFF774FB002816D11648014674
:101CD0004470902008707F20C04308990143084653
:101CE000022103E0FFF7DEFE01462046C2B2089063
:101CF00040070B4800D118E704E7308807E7308831
:101D0000401F04E70920FFF768FBFFF789FE022068
:101D1000FFF763FB442100203100ADDEF61B0020FD
:101D2000081C002000180020841A0020E01B00205E
:101D3000F81B00203BFAFFFFA5F9FFFFC64000009B
:101D4000BB400000F0B581B007465A4C254614351B
:101D5000382228463946FFF76EFA2169A068002923
:101D600003D088470346A06803E01C214143226852
:101D700053180026002810D02269411E002A0FD0D7
:101D80000846009737462E461D4690472B46354657
:101D90003E46009F0246A06806E03046324603E019
:101DA0001C224A4321688A186168491E884210D261
:101DB0002169401C002908D000951D461646884719
:101DC00032462B46009D064603E01C214143206815
:101DD00046187878402809DC202820DC10282ED0EE
:101DE00020285DD15869002858D149E080281EDCA0
:101DF00041282CD0422853D159690020002957D1BD
:101E0000D968002954D16168012951D0A268491EBE
:101E10008A424DD0F16800294AD130692BE021284F
:101E20002BD022283CD1586900282AD136E08228BC
:101E30002FD0812834D1A068002831D12EE0D86875
:101E400000282BD02063587E002820D128E0596933
:101E5000002000292CD1D968002929D1A1680029A6
:101E600026D06168012923D0D168002920D1516989
:101E700000291DD11069206312E0586900280DD097
:101E800018692063187E00280AD00821A185E08205
:101E900006E06068A168401E814201D1002007E091
:101EA000E268002A284603D0143418462146904799
:101EB00001B0F0BD4C1C0020F0B581B005463B4F91
:101EC0003969B868002902D08847064603E01C211A
:101ED00041433868461801243548854214DD3548A9
:101EE000854216D0344885421AD0344885425AD1AA
:101EF000306800284ED0B46800F0E8FF0146FA6868
:101F0000204600F069F84DE02D498D4208D0854209
:101F100049D17968B868491E884243D2401C03E021
:101F2000B86800283ED0401E264900240C60B860E6
:101F300025480460254DAC6025480460E8692549C2
:101F4000884230D000282ED0286800282BD00024CA
:101F500020466968884226D201F098FA002822D1EA
:101F6000A868E968382670432A681018002902D04A
:101F70008847002807D0012803D1A868464328686D
:101F8000801903F00DF8A868401CA8602968002992
:101F9000DFD108E07068002805D000F097FF014607
:101FA000B06888470024204601B0F0BD4C1C0020DA
:101FB0000200008002000040010000400300008099
:101FC00001000080FC1B0020001C0020641F00207A
:101FD000041C0020445010B0F0B583B002920C46AF
:101FE0000190384E002000907060002915D03B49C8
:101FF00079441C2720463A46FFF7DAF900280CD02E
:10200000374D7D447068401C706078432018294625
:102010003A46FFF7CDF90028F4D10199481C05D0C4
:1020200070688842009800D30846B0600025029886
:10203000F06035613460244C2A48784420610920DE
:102040002949794421606060E561032020762748B2
:102050007844E0602046183001F08EF9E06100F02D
:1020600047F81A4805601A480560A56019480560D8
:10207000E0691949884222D0002820D01CE060681D
:1020800085421CD201F002FA002818D1A068E1684C
:102090003825684322681018002902D08847002894
:1020A00007D0012803D1A06845432068401902F0F9
:1020B00077FFA068451CA56020680028DFD103B029
:1020C000F0BDC0464C1C0020641F0020FC1B0020FB
:1020D000001C0020041C0020445010B0883F000069
:1020E000763F00007BFEFFFF3E3D0000F1FCFFFF5E
:1020F0007047000081B0F0B58EB01393022900D272
:10210000DCE1002800D1D9E11646002A00D1D5E152
:102110000C460021049105462246FFF783F813A9D7
:1021200009913178002900D1C8E12846621E049F38
:1021300002E0F11949787F1CC9B2002901D0252994
:10214000F7D1974200D317463146044615463A4622
:10215000FFF771F82A46EA1B00D1AFE12046E019EB
:10216000F15DF619252900D0A5E105920390731CB5
:102170000020202106910A2108910546029004467C
:1021800005E00224334609990A1D09920D681E468E
:1021900022463178761C00242D29F9D0472916DCF7
:1021A0002F2923DD0B46303B0A2B00D310E13029C9
:1021B000069B1C4600D10C46002800D01C460A2372
:1021C000434358183038334606941446DFE76729EE
:1021D00005DD72291FDD732935D1089C1EE06229B7
:1021E00036DC482944D10121029116E0252951D03D
:1021F0002A2924D02E2900D0EAE031782A2900D0DB
:10220000E6E07178731C01244829BCD06829BAD053
:102210007329B8D0DCE0682930D1102409990B1D4E
:102220000993D3B20968012B00D1C7E0022B00D17A
:10223000CAE00894032B33461446A8D0D7E031787F
:1022400073299ED0C4E0752926D0782919D0BFE023
:10225000632900D1A6E0642900D0B9E0079009986D
:10226000011D09910068C11742184A40C00F19E0CA
:10227000582900D0ACE00121029102E0702900D081
:10228000A6E007900998011D0991026800200190BD
:10229000102509E0252189E007900998011D099181
:1022A0000268002001900A250892954201D9012474
:1022B00012E0012728460446294603F01BFBB842DA
:1022C00009D1284660430799491E07910899884219
:1022D0002746F0D900E03C460095019A002A01D13A
:1022E000079901E00798411E069B0027002A01D1AB
:1022F000154600E0FD43002A069508D0D8B23028E4
:1023000007D13D460AA82D220270012702E03D4672
:1023100000E01546881E0D280ED80AA8C019491ECF
:10232000DAB203F089FB01200799401A0699401A96
:10233000401C7F1C0028FBD1002D03D00AA82D21B2
:10234000C1557F1C002C1CD00298002802D0624886
:10235000784401E05F4878440790009D0898214642
:1023600003F0C8FA294603F04BFB0798405C0AA922
:10237000C8552046294603F0BDFA7F1CA5420446F5
:10238000ECD90598874200D307460AA9039C20464A
:102390003A46FEF750FF059AD21B00D18EE0204648
:1023A000E01987E00998011D0991016803980170FF
:1023B000059A521E00D181E0401C7BE007902F4619
:1023C0000398059A029D1DE007900878002850D0D8
:1023D000059C052C00D305243B497944039D2846E0
:1023E0002246FEF728FF059A121B61D166E007908E
:1023F00000228B5C521C002BFBD1571E0398059AC0
:10240000029D089C102C28D1002F53D00023079345
:10241000022A53D3079BCC5C002D06D0012D12D18C
:10242000059205462A4A7A4403E005920546274A62
:102430007A440F2323402009D35C6B70125C28463A
:102440002A70059A029D022A38D0921E079B5B1CB7
:10245000801C0793BB42DBD31AE0974200D3174698
:102460003A46FEF7E8FE059A0398D21B26D0C0191B
:102470000EE00598854200D305462021039C2046A6
:102480002A46FEF7CFFE059A521B17D02046601948
:102490000799B9420ED9CC1B944200D3144620218F
:1024A000054617462246FEF7BDFE3A463A1B05D0C2
:1024B000284628193178002900D038E600200EB0CF
:1024C000F0BC02BC01B00847DA3B0000643B0000EE
:1024D0007E3B00003E3C0000543C0000F0B58FB055
:1024E0000293002A039100D11CE10746149806903C
:1024F000002631463346019608920997785C0724F6
:102500000440C00803283CD0022871D0012800D024
:1025100012E10025E843022C00D00FE14C1C6B4176
:10252000A11A1946A94100D308E1101B2946994177
:102530000106059400D192E004950A930796391993
:102540000C91C0B20B9000273C463D463E460E958E
:102550000C98015D0D917F20084000213A4603F060
:1025600055FA0E9D05430D98000605D50E43FF1D37
:10257000641C0B988442EAD3079E089A0A9B049F26
:102580006FE00025E843022C00D0D7E04C1C6B41E3
:10259000A11A1946A94100D3D0E0101B2946994140
:1025A0000106059470D004950A93079639190C9189
:1025B000C0B20B9000273C463D463E460E950C9817
:1025C000015D0D917F20084000213A4603F01EFA7C
:1025D0000E9D05430D98000605D50E43FF1D641C96
:1025E0000B988442EAD3079E089A0A9B049F4DE009
:1025F0000025E843022C00D0A0E04C1C6B41A11A3E
:102600001946A94100D399E0101B294699410106BA
:1026100005944ED004950A93079639190C91C0B2CF
:102620000B9000273C463D463E460E950C98015DBA
:102630000D917F20084000213A4603F0E7F90E9DF6
:1026400005430D98000605D50E43FF1D641C0B982D
:102650008442EAD3079E089A0A9B049F2BE02C46EB
:102660002F46601CC0B205990C187B410698864223
:102670004CD10A93102032490A460F5E0820095EA9
:102680005068304A7A4428E02C462F46601CC0B27D
:1026900005990C187B410698864237D10A93102081
:1026A00027490A460F5E0820095E5068274A7A4487
:1026B00013E02C462F46601CC0B205990C187B41D4
:1026C0000698864222D10A9310201D490A460F5EC1
:1026D0000820095E50681C4A7A44FFF70BFD0D94F0
:1026E00009980119781EA8420E9500DC0546144889
:1026F0000446C0682A4603F079FAE0680021415593
:102700000A98099F0E9D089A0D9C01E01846099FA2
:10271000EB1761194341761C00208C1A1C4684413A
:1027200002D2EBE600263146029A0398017001209E
:10273000002A03D0166001E00198C0430FB0F0BD3D
:10274000F81D002036390000EC3800002039000068
:10275000F0B58FB002930A90002A039100D116E1E0
:10276000174614980590002001460346064601903E
:10277000089006920A98405C07220240C00803288D
:102780003CD002286FD0012800D00AE10025E843A0
:10279000022A00D007E14A1C6B41D11B1946A9410E
:1027A00000D300E1B81A2946994101060B9200D1E5
:1027B00090E00495099307960A9989180D91C0B283
:1027C0000C9000252C460E952F460D98065D7F2017
:1027D000304000212A4603F019F90E9A02430E9266
:1027E000300605D50F43ED1D641C0C988442ECD3D4
:1027F000079E069F099B089A049D6EE00024E04313
:10280000022A00D0CFE04A1C6341D11B1946A141E6
:1028100000D3C8E00796B81A2146099399410106EA
:1028200004926DD00A9989180C91C0B20B9025467C
:1028300027460E9426460C98015D0D917F20084096
:1028400000212A4603F0E2F80E9A02430E920D98F8
:10285000000600D487E00F43ED1D761C641C0B9826
:102860008442E8D380E00025E843022A00D09AE0C1
:102870004A1C6B41D11B1946A94100D393E0B81AF9
:102880002946994101060B923DD00495099307967C
:102890000A9989180D91C0B20C9000252C460E950E
:1028A0002F460D98065D7F20304000212A4603F018
:1028B000ADF80E9A02430E92300605D50F43ED1D7A
:1028C000641C0C988442ECD3079E069F099B089ACF
:1028D000049D1BE02C460E95089A601CC0B20B9913
:1028E0000C186B410598824236D1099310202F496C
:1028F0000A460D5E0820095E50682D4A7A4417E0AA
:1029000026460E9430E02C460E95089A601CC0B204
:102910000B990C186B41059882421DD10993102028
:1029200022490A460D5E0820095E5068214A7A4411
:10293000FFF7E0FB0A980119681E0E9DA84200DC13
:1029400005461A48C0682A4603F050F91748C0687F
:1029500000214155099B089A0E99C81761184341F7
:10296000521C08920CE02646701CC0B2002204994A
:102970000818099B53410E9941185341079E069F21
:10298000761C0020CA1B1A46824102D2F2E60026BB
:102990003146029A039801700120002A03D0166084
:1029A00001E00198C0430FB0F0BDC046F81D002003
:1029B000DA36000096360000F0B593B00793039224
:1029C000002900D16AE20646002005460446024678
:1029D00008900E900C910696715D07200840C9087A
:1029E000089BDB4303290B9241DC012900D185E0E0
:1029F000022900D1BAE003290C9900D054E2002743
:102A0000FB43002800D04FE26D1C7C41681A204631
:102A1000B84100D348E2481B3946A14101060D9454
:102A20000597049500D14CE171190A91C0B2099043
:102A300000252C462F462A462B4610920A98015D07
:102A40000F917F20084000212A461E4602F0DEFF3B
:102A50003346109A0B4302430F98000600D494E1CA
:102A6000ED1D7F1C641C09988442E6D38EE1042985
:102A700000D1B4E00A2900D1E6E00C290C9900D07D
:102A800012E20027FB43022800D00DE26D1C7C41BE
:102A9000681A2046B84100D306E2022004950D468C
:102AA000FD49C8750498281A049D3946A1410106BC
:102AB0000D940593029700D107E171190A91C0B2F4
:102AC000099000242746264610940F940A98C55D65
:102AD0007F2028400021224602F098FF0F9A0A43E7
:102AE00010990143109128060F9200D466E1E41D6D
:102AF000761C7F1C09988742E8D360E10027FB43DE
:102B0000002800D0D0E16D1C7C410C99681A204649
:102B1000B84100D3C8E1481B3946A141010600D1A4
:102B2000DFE009970D94059571190F91C0B20A90D5
:102B300000252E462B462F460F98815D10917F2051
:102B4000084000212A461C4602F060FF234603434A
:102B50001098000605D50F43ED1D761C0A98864295
:102B6000EAD3D34A0D9C099F059DBDE00027FB4396
:102B7000002800D098E16D1C7C410C99681A204611
:102B8000B84100D390E1481B3946A14101060D949C
:102B90000597049500D19CE071190A91C0B2099083
:102BA00000252C462F462A462B4610920A98015D96
:102BB0000F917F20084000212A461E4602F026FF82
:102BC0003346109A0B4302430F98000600D40CE1E1
:102BD000ED1D7F1C641C09988442E6D306E10027A2
:102BE000FB43022800D05FE16D1C7C410C99681A00
:102BF0002046B84100D357E1481B3946A1410106A0
:102C00000D94099500D190E0059771190F91C0B20C
:102C10000A9000242646109427460F98855D7F2051
:102C200028400021224602F0F1FE109A0243109241
:102C3000280605D50F43E41D761C0A988642ECD37E
:102C40009B4D109F059A73E00027FB43022800D09C
:102C50002AE16D1C7C410C99681A2046B84100D3CA
:102C600022E1012004950D469149C8750498281A5F
:102C7000049D3946A14101060D94059302972CD07D
:102C800071190A91C0B20990002425462646109475
:102C90000F940A98475D7F2038400021224602F0B9
:102CA000B5FE0F9A0A4310990143109138060F920E
:102CB00000D4C4E0E41D761C6D1C09988542E8D35D
:102CC000BEE038463A463B4660E03E4610970F97D6
:102CD00075E038463A463B4688E03E4610970F97E7
:102CE000AEE03E463B46724A701C12A90870C0B264
:102CF0002E187C410D94012507980E99814210D120
:102D00000820115E506814466A4A7A441F46FFF74D
:102D1000F1F91020215EE068674A7A443B46FFF7EC
:102D2000E9F90B9A069F0D9B2DE03E463A46604D11
:102D3000701C12A90870C0B209990E180D9B53415E
:102D400007980E99814218D10D9310202C5E08200F
:102D5000295E68685C4A7A44FFF7CCF906988119C5
:102D6000601EB8423C4600DC0446E868224602F099
:102D70003DFFE868002101550D9BF817F619434106
:102D800001250B9A069F0C9979E02746781C12A919
:102D90000870C0B204990E180D98059948410D901D
:102DA000012507980E99814244D1082040490C46DC
:102DB000095E60681092434A7A442EE03E46701CD9
:102DC00012A90870079A0E9BD21A6B461A60C0B2FD
:102DD000049A14180D9D02984541069F381911ABAD
:102DE000109E3246FFF7B4FC3FE02746781C12A93C
:102DF0000870C0B204990E180D98059948410D90BD
:102E0000012507980E99814214D1082028490C46C3
:102E1000095E60681092294A7A441F46FFF76AF9F2
:102E20001020215EE0686A46109B88C2244A7A44DA
:102E3000FFF760F90C990B9A069F0D9B1FE02E4639
:102E4000701C12A90870079A0E9BD21A6B461A6062
:102E5000C0B2049A14180D9D02984541069F381976
:102E600011AB109E3246FFF739FB401C0C990B9AB0
:102E7000059B19D0A6190F9845412B46119D0E9818
:102E800028180E90AA180020711A194681411C4674
:102E900035463E4603D29FE5F81D0020002201235F
:102EA0000398002800D00260184613B0F0BDC04659
:102EB000F81D0020D7320000832F0000D131000020
:102EC0006F2E000037320000A332000080B50449A5
:102ED000884204D30349884201D200F005F880BD3E
:102EE0000000D0C04088D0C07A460249C91C891A67
:102EF000401A7047E92ED0C04101C9170C4A0A4058
:102F00008101C9170B4B0B40C10189085940514041
:102F10000201D217084B13404B40C100C917074AA2
:102F20000A405A408000C117054808405040704789
:102F30006D8E5026B2576A3BFA19A11EDD33423D11
:102F4000B362142AF0B587B00593049207460C7853
:102F50000026002C039602911CD0481C06900120EC
:102F600000262546019629462139C9B25D295ED839
:102F700029464139C9B21A2959D3FFF7BDFF014685
:102F80000698825DE8B240094840761C002A154642
:102F9000E9D100E0012005998919C91D5A29039931
:102FA00048D8FFF7A9FF002C0ED002994D1CFFF75F
:102FB000A3FF01463C701F2020404840691C7F1C35
:102FC0002C78002C0D46F2D1312139707D1C0599E9
:102FD000002913D0002419497944069103940499D7
:102FE0000F5D1F2F25D80699CE5DFFF785FF2E5563
:102FF0007840641C05998C42F1D32D190624FFF703
:103000007BFF641EFBD101210E4648401E210C4A65
:103010007A44491F0346CB401F241C40135D2B708C
:103020006D1C0029F5D100202870314602E001997D
:1030300000E00399084607B0F0BDC0462B30000001
:10304000F32F0000F0B586B017460246184600255B
:10305000EC43BC40E3430D9C00940C9C02940B9CFD
:10306000002C2E462AD07D42049500263546059236
:103070000394029C36192C46029DAC4001900578C1
:1030800025430398401E039011E00C681A46631C08
:103090000B6004988319084639462F46DD401346D5
:1030A000059A1D4015553D460F460146F61BBE428A
:1030B000EBDA0198401C039C002CD9D10098002821
:1030C0000AD0002E11D018460B685C1C0C60B91B8E
:1030D0008D400540D55408E000210298864205DA6B
:1030E000BA1B95401D40002D00D10121084606B0B5
:1030F000F0BD01DF7047000080B582B00090074846
:103100006946FFF7F6FF01AA11600549884201D11F
:1031100002B080BD0420FEF760F9C04637010060B0
:10312000C601009080B582B0064801A9FFF7E1FF13
:103130006A4611600449884201D102B080BD042072
:10314000FEF74BF900020060F102009080B584B0F8
:1031500000AB07C306486946FFF7CBFF03AA11601F
:103160000449884201D104B080BD0420FEF735F93E
:103170007F030060BC03009080B584B00291019091
:10318000074801A9FFF7B5FF03AA11600549884266
:1031900002D1039804B080BD0420FEF71EF9C0469A
:1031A0002C0500606705009010B588B00B9C069454
:1031B0000A9C05940493039202910190074801A987
:1031C000FFF797FF07AA11600549884202D10798C7
:1031D00008B010BD0420FEF700F9C0463B070060B0
:1031E000AD07009080B584B002910190074801A915
:1031F000FFF77FFF03AA11600549884202D10398B7
:1032000004B080BD0420FEF7E8F8C046CF1000608F
:10321000D810009080B586B001AF0FC7074801A94C
:10322000FFF767FF05AA11600549884202D105989A
:1032300006B080BD0420FEF7D0F8C046ED2D00603A
:10324000492D009080B586B001AF0FC7074801A98E
:10325000FFF74FFF05AA11600549884202D1059882
:1032600006B080BD0420FEF7B8F8C046EA2E006024
:10327000632E009080B586B001AF0FC7074801A943
:10328000FFF737FF05AA11600549884202D105986A
:1032900006B080BD0420FEF7A0F8C0462E2F0060C7
:1032A000742F009010B58AB00F9C08940E9C079460
:1032B0000D9C06940C9C059404930392029101903A
:1032C000074801A9FFF715FF09AA116005498842BF
:1032D00002D109980AB010BD0420FEF77EF8C0465E
:1032E000F33800607638009080B584B000AB07C337
:1032F00007486946FFF7FDFE03AA116005498842A9
:1033000003D103A8008804B080BD0420FEF765F84F
:103310009E3C0060B93C009010B586B0089C0494B7
:10332000039302920191009006486946FFF7E1FE7F
:1033300005AA11600449884201D106B010BD0420DD
:10334000FEF74BF8BA5300601E53009080B582B070
:10335000009007486946FFF7CCFE01AA11600549B5
:10336000884201D102B080BD0420FEF736F8C04685
:10337000E16200606F62009080B582B00090074803
:103380006946FFF7B6FE01AA11600549884202D1DD
:10339000019802B080BD0420FEF71FF85864006059
:1033A0001F64009080B582B0074801A9FFF7A1FE15
:1033B0006A4611600549884202D1009802B080BD7A
:1033C0000420FEF70AF8C0466E6800607F6800902F
:1033D00080B584B002910190074801A9FFF789FEEA
:1033E00003AA11600549884202D1039804B080BD48
:1033F0000420FDF7F2FFC046B8690060C469009080
:1034000080B584B002910190074801A9FFF771FED1
:1034100003AA11600549884202D1039804B080BD17
:103420000420FDF7DAFFC046AC6B00605D6B0090D6
:1034300080B584B000AB07C307486946FFF759FE63
:1034400003AA11600549884202D1039804B080BDE7
:103450000420FDF7C2FFC046D47000608770009062
:1034600080B584B002910190064801A9FFF741FEA2
:1034700003AA11600449884201D104B080BD042030
:10348000FDF7ABFF1C720060F372009080B582B054
:10349000074801A9FFF72DFE6A46116005498842D9
:1034A00002D1009802B080BD0420FDF796FFC0460F
:1034B000CF7300607F73009080B584B000AB07C30A
:1034C00007486946FFF715FE03AA116005498842BF
:1034D00003D103A8008804B080BD0420FDF77DFF60
:1034E000D17400602B74009080B50548FFF7EEFCA6
:1034F00002460120010243030248FDF765FC80BD3E
:103500004068D0C0D81C002080B5FDF775FC80BD98
:1035100080B5FDF783FC80BD80B5FDF7BFFCC0889A
:1035200080BD80B5FDF7BAFC006880BDB0B5FDF781
:10353000B5FC0568FDF7B2FCC1880024E3432846CA
:103540002246FFF739FA012802D10348047201E04C
:10355000024C7C442046B0BDEC1D0020D22A000065
:10356000F0B581B00F4E307A002818D10E4F0020F0
:1035700078823882F8813880C443FC80BC807C80AB
:10358000FFF7CFFF0546FFF7C7FF01466A4628460B
:103590002346FFF711FA012030720098388001B0FD
:1035A000F0BDC046EC1D0020D81D002080B5FFF7FF
:1035B000D7FF0248008800B280BDC046D81D002059
:1035C000F0B583B0364A1278002A03D08321384AF6
:1035D0007A440BE0089A452A03D88321354A7A4475
:1035E00004E0072907D18321334A7A44022300F0FB
:1035F0002DFC03B0F0BD00920190402002931E5CB0
:10360000002E1AD0052E029D08D1284641302B49A4
:1036100079440522FDF7CCFE00282DD04135002449
:10362000274F7F44E0B2032102F0EAF9285D795C7C
:1036300041402955641CA642F4D145200299085CFA
:103640004630009A904211D1413116483246FDF77A
:10365000F2FD154806801548072101700920104920
:1036600008700121019800F0CBFBC2E78321154AC5
:103670007A4402230198BAE70A4D03222A70681C93
:1036800011497944FDF7D7FD281D104979440422DA
:10369000FDF7D1FD2878431D832101982A46A6E72E
:1036A000F61B0020841A0020F81B0020E01B0020DD
:1036B000712A0000652A00005B2A0000372A0000FA
:1036C0002B2A0000E6290000CB290000C5290000B4
:1036D000F0B581B01D460E460446184600F084FB46
:1036E000002804D068460421FFF746FD04E0684640
:1036F00004222946FDF79FFD154F08223846314622
:10370000FDF799FD3846083069460422FDF793FD20
:1037100000203874F8730121B9737873022038736C
:10372000284600F061FB0146201D002904D0FF213E
:103730000422FDF777FD03E069460422FDF77BFDD7
:103740008621034A1123204600F080FB01B0F0BD22
:10375000841A0020F0B583B0029088794B791B025F
:103760001F188878019048780E781546093DABB24D
:103770009F4203D0D41FA4B2A7421BD13D46002EC6
:1037800008D083211C4A7A440223029800F05EFB91
:1037900003B0F0BD022815DC012820D002281AD180
:1037A000A8B26A461060CB1D002202980199FFF76B
:1037B00007FFEDE7DBB29F42E1D0E3B29F4212D1B7
:1037C000D51FDCE7032812D0C12804D183210B4A7E
:1037D0007A440423D9E783210B4A7A44D4E783212E
:1037E000074A7A44D0E78321084A7A44CCE7832108
:1037F000044A7A440823C8E7DE2800009028000025
:103800005D280000662800008C2800005928000070
:1038100080B5C1698A784B781B029B180A78812A87
:1038200009D0832A0DD0862A0FD1C91C031D00227E
:10383000FFF74EFF80BDCA1C9BB2812100F006FB42
:1038400080BDC91C9AB2FFF785FF80BD70B5012A03
:1038500013D10D460146094C20462A46FDF7EBFCE4
:1038600060194026721B00252946FDF7DBFC8120EC
:10387000214632462B46FDF74BFE70BD981C0020BA
:1038800000238376C3820282C16043858384C16141
:1038900003627047F0B583B00D4604462B20215CCF
:1038A00020462B30002902D0002101705FE020214A
:1038B000615CC91EC9B2012959D823462033218B26
:1038C000E28A914204D9A07E00280ED001230DE0A7
:1038D0004DD10021A176E18201702A2021549980E6
:1038E0001960E068E0612348DFE703236E1E77423A
:1038F0007741BE009B194026F71A891AB94200DCAD
:103900000F46012D029609D1211D1B48042632467F
:103910000193FDF790FC019BA07E00E000260028AB
:1039200001D0401E09E00298205C1349885501200F
:103930003043627E0A54461C207EF91802910E4ADA
:103940009055E169002906D0BEB2D018E38AC918A3
:103950003246FDF770FCE08AC019E082A07E401C70
:10396000A076029881B204482A46FFF76FFF03B0A1
:10397000F0BDC046F61B0020981C0020B0B52B21DE
:1039800001244454011D0A4D04222846FDF753FC2E
:10399000852028726920E8710220A87100206871D2
:1039A00083202871092128462246FFF74FFFB0BD2A
:1039B000981C0020B0B52B2101244454011D084D52
:1039C00004222846FDF737FC0020A8716871882082
:1039D0002871072128462246FFF738FFB0BDC046B0
:1039E000981C0020F0B581B005462520285C0024F5
:1039F00005281BD028462530009008784B781B02FC
:103A000018188B78CF783F02FB181B0418182B79F5
:103A10006F793F02FB18AF79EE793602F61936045A
:103A2000F318834205D0052000990870204601B0A4
:103A3000F0BD0B79688C002813D02426AE5DB3420C
:103A4000F1D12E4624362F8B5B1C33703B1A521F4C
:103A50009A4200DB1A468018688492B2288D491D6C
:103A60001AE0882B04D12846FFF7A4FF0124DDE7E4
:103A7000832BD8D1487900028B79DB1C0343288B38
:103A80008342D0D1091D24260020A855121F9A4236
:103A900000DB1A466A8492B2FFF726FC2885298B40
:103AA0006A8C01278A420FD3E98C8842BBD1062059
:103AB000009E307000246C842A20285C012803D1E9
:103AC0002846FFF75BFF34703C46AFE7F0B587B0A0
:103AD000044603722020205C2646203603280AD0A4
:103AE0000F462A21615C00291AD020463946FFF78B
:103AF00079FF002812D1B8480621017204213170E3
:103B00004021BF2262540830E0610020A0760121EC
:103B10002183E082217A2046FFF7BCFE07B0F0BD8A
:103B20001D4623462A33042809D12B200021215485
:103B3000A176E1821970B1803160E068E06106939E
:103B4000681E414241418B00581C90422CD8039082
:103B5000012D08D1201D0592042239460493FDF75A
:103B60006AFB049B059AE08A00280DD0012D17D12D
:103B700020461230211D059204220493FDF718FC03
:103B8000049B059A00280BD0032118460843904255
:103B90000AD8F856002828DB8F4804210172AEE7C6
:103BA00002201843904202D98B488521A5E72120A5
:103BB000205CA84216D13078012847D1012D53D17D
:103BC000211D0420069038460592069A0493FDF7BD
:103BD000EFFB049B059A002846D07F48062101721E
:103BE00006998CE77C488D2187E70291F8180690AA
:103BF000012D14D1307801281AD1201D214612310F
:103C00000592042201900493FDF7D2FB049B059AD0
:103C1000002804D006980078862800D0C4E03078C8
:103C2000012805D1012DB7D1069800788628B3D197
:103C300002201843385C0399795C09020F18208A26
:103C4000C01E874235DD6448029956E7012DA3D195
:103C50002B2000212154A176E18206980170B180C9
:103C60003160E068E06159E7F85CA17E884293D159
:103C7000F9180398171AE08A228B121A974200DB70
:103C80001746BAB2E3691818491C0692FDF7D3FA31
:103C9000012D07D1E08AE1690918E08C069AFFF747
:103CA00023FBE084E08AC019E082A07E401CA0765D
:103CB00054E006980078812803D086281CD08328F9
:103CC0005FD104930592012D23D1201D43497944EE
:103CD000042203900292FDF76BFB002807D04049B5
:103CE000794404220398FDF763FB002811D13A4878
:103CF0000B210172029902E7012D42D10493059232
:103D0000201D3849794404220392FDF751FB002815
:103D10005DD005980499401AF91C884200DB0846DA
:103D20000491059087B2E06906993A46FDF783FA57
:103D3000012D05D1E16900203A46FFF7D5FAE0846C
:103D400021202554049820830598E0820020A07645
:103D500020461230211D0422FDF76DFAE08A012D64
:103D600001D1218B06E0218BCA1C824202D21A4863
:103D70000321C2E6884211D2002060630120307026
:103D8000CCE6154801210172042232704022BF2383
:103D9000A3540830E0610020A076B9E6022030701C
:103DA0002046FFF735FDB9E60B4C04222046019969
:103DB000FDF741FA0620E0710122A2710020607136
:103DC000BF20207108212046FFF740FDA6E60248EB
:103DD0000B210172039992E6981C00209A2300009F
:103DE0008C2300006823000080B504497944042234
:103DF000FDF7DEFA4142484180BDC0467C2200000A
:103E000080B52A22835C02462A32002906D0002B84
:103E100008D101211170FFF7B1FD80BD012B01D147
:103E20000220107080BD2A21415C00290CD001299C
:103E300008D02521415C062904D12B21415C484250
:103E4000484170470020704701207047B0B52A24D0
:103E5000045D002C0AD0012C07D02524045D062C1B
:103E600003D12B24045D002C00D0B0BD20240325F9
:103E7000055540240155C261002181760383C1822A
:103E80002121415CFFF706FDB0BD00000249002082
:103E90000860024908607047141E0020101E0020B0
:103EA00010B507480221C1700121817000244470BF
:103EB0004F2101700421FFF7D3FA204610BDC04600
:103EC0000018002070B582B06D4600242C710320CC
:103ED000E8700220A8706C704F262E7005212846CD
:103EE000FFF7BEFA0120E870A8706C702E700421F4
:103EF0002846FFF7B5FA204602B070BD10B582B073
:103F000001A80221C17001218170002444704F2159
:103F100001700421FFF7A4FA204602B010BD000092
:103F200070B582B0144800240460144804606D46E3
:103F3000AC716971012028710421E9700526AE7009
:103F40006C704F242C70012A05DC002A0AD0012A4B
:103F50000AD1084606E0022A03D0032A04D102202F
:103F600000E00320694688716846C3710821FFF7A5
:103F700077FA002002B070BD141E0020101E002031
:103F800010B582B068460024C4718471417101216A
:103F900001710421C1700521817044704F210170AD
:103FA0000821FFF75DFA204602B010BDB0B582B01F
:103FB0000D4668460024447140210171C5700321FB
:103FC00081704470502101700621FFF749FA2806DC
:103FD00001D5074800E0054801687F22154001220D
:103FE000AA400A430260204602B0B0BD141E002061
:103FF000101E0020B0B582B00D4668460024447102
:1040000080210171C57003218170447050210170BD
:104010000621FFF725FA280601D5074800E00548E4
:1040200001687F2215400122AA4091430160204689
:1040300002B0B0BD141E0020101E0020080601D5DD
:10404000054800E0034802787F20014001208840B5
:1040500010407047141E0020101E002010B582B0C2
:10406000684601710321C1700221817000244470EF
:104070004F2101700521FFF7F3F9204602B010BD72
:10408000B0B582B01C4615466846437120220271C5
:10409000C17050210170D91C8170090A417006213C
:1040A000FFF7DEF928462146FFF7DAF9002002B0D3
:1040B000B0BD10B582B06846427130220271C17045
:1040C0000321817000244470502101700621FFF704
:1040D000C7F9204602B010BD70B5002815D01546AE
:1040E0000E4604464D208100204601F09BFC002E28
:1040F00002D0112000012650FC20012121542570FE
:104100002046FFF7C3FE002070BD022070BD70B5D1
:104110000446FC2001212154452080002518172049
:10412000C643A8198069002806D04068FEF7CEFE75
:1041300002462179204690470836F2D12046FFF703
:10414000DDFE2046FFF7ACFE002070BD002A09D03E
:1041500003460020022B04D8DB00C91845239B002E
:10416000CA5070470220704780B5FFF7ABFE0020B1
:1041700080BDF0B581B00C4605464520870000267D
:104180002846314600F070F9002807D0E859006849
:10419000FEF79CFE02462846214690470837761CCB
:1041A000032EEDD1002001B0F0BDF0B581B00C467A
:1041B00005464520870000262846314600F054F980
:1041C000002807D0E8594068FEF780FE02462846DE
:1041D000214690470837761C032EEDD1002001B010
:1041E000F0BD70B504462120C600A519284600F090
:1041F0008EFBF4200121215087204000205AF82115
:104200006050A15D1F200840022808D001280BD073
:1042100000280ED12046294600F033F90EE0204652
:10422000294600F0F0FA09E02046294600F0C6FAD7
:1042300004E0802001402046FFF7B8FE002070BD5A
:10424000F0B583B0029204460646FC36019100297F
:104250001BD04520850000272046394600F004F990
:1042600000280DD060598069002809D031780329D1
:1042700006D1FEF72BFE034620460199029A984785
:1042800008357F1C032FE7D131E0F42020580328A4
:104290002DD121468C31902020580A6882420AD9BB
:1042A000121A0A60824200D3024692B22046029954
:1042B00000F0ACFD1BE04520870000252046294684
:1042C00000F0D2F800280BD0E0590069002807D090
:1042D0003178032904D1FEF7F9FD014620468847CD
:1042E00008376D1C032DE9D1204600F096FD002013
:1042F00003B0F0BDF0B581B00446F830009000295D
:104300001CD00D464520870000262046314600F08F
:10431000ABF800280DD0E0594069002809D0009979
:104320000979032905D1FEF7D1FD02462046294629
:1043300090470837761C032EE7D14DE0F420205833
:10434000022842D1E069256AA8420BD913210A014B
:10435000A1584919A150401BE06182B2204600F0EB
:1043600047FD32E0A6693046294601F049FBAE42DE
:104370000ED300290CD100980068864208D200258F
:10438000204629462A4600F033FD009805601CE0CF
:104390004520860000252046294600F065F80028C3
:1043A0000CD0A059C068002808D0009909790329C9
:1043B00004D1FEF78BFD01462046884708366D1C68
:1043C000032DE8D1204600F034FD0098007A012842
:1043D00002D1002000990872002001B0F0BD70B534
:1043E0000446FC20012121549020402121502162CB
:1043F0004520860000252046294600F035F8002893
:1044000007D0A0594068FEF761FD02462179204699
:10441000904708366D1C032DEDD1002070BD01744E
:1044200000207047002070470020704770B5044698
:10443000FC20205C032815D145208600002520465D
:10444000294600F011F8002808D0A059C0690028BA
:1044500004D0FEF73BFD01462046884708366D1C18
:10446000032DECD1002070BD022908D8C9004018E6
:10447000452189004058002800D0012070470020C5
:10448000704780B54A78042A08DD072A0FDC052A20
:1044900014D0062A1BD100F021F81DE0002A10D00C
:1044A000012A17D0032A12D100F03FF914E0082A9C
:1044B0000AD0092A0BD100F0C5F80DE000F09CF8F5
:1044C0000AE000F00EF907E000F0F4F804E000F074
:1044D000F7FB01E000F048F9002080BDB0B582B0E4
:1044E0000D4604464988080A052813DC01281CD01B
:1044F000022825D003283AD1C8B202283CDC002883
:1045000066D001286ED0022831D111200001205838
:10451000C0680EE006281DD0072825D00F2826D118
:10452000112000012058C06903E01120000120582B
:104530000068FEF7CBFC0246207C01A9904735E0DD
:10454000452080002058002821D0217C002927D038
:10455000C06A26E0207C002809D145208000205830
:10456000002804D0406B1CE0207C002811D020469D
:10457000294600F0A5FB29E003282ED0042836D0D8
:104580000528F4D11120000120588069D1E70021CD
:104590000DE04520800020580028E8D0006B00E0A6
:1045A000806AFEF793FC014601A88847014601A8EE
:1045B0000288002A0AD0E888002807D0824200D367
:1045C000024601A80280204600F0FCFB02B0B0BD0C
:1045D0001120000120584068ABE71120000120584D
:1045E0000069A6E71120000120588068A1E711208A
:1045F0000001205840699CE770B50446888800286F
:1046000006D1C888002803D1FC20205C032803D1F0
:10461000204600F055FB70BD48887F2505402646A2
:10462000FC36FE20255420462946FFF717FD20467C
:1046300000F0F3FB002D02D00220307070BD01208D
:10464000307070BD70B50D4604468E78022E1DD2B6
:10465000FC20215C2046FC30032907D0022915D11B
:10466000002E23D066600321017009E0002E12D0D5
:104670006068B0421AD0C1B22046FFF796FD66606E
:1046800020463146FFF775FD02280FD12046294606
:1046900000F016FB70BD0221017000206060204612
:1046A0003146FFF782FD204600F0B7FB204600F0C0
:1046B000B4FB70BD80B5CA88012A0AD1FC22825C95
:1046C000032A09D0022A04D1002181600146083161
:1046D00003E000F0F5FA80BD011D012200F072FB3D
:1046E00080BDB0B50446FC20205CFE220240022AB8
:1046F0000FD10120E06041208000205825460C3574
:1047000000280AD0204600F094FBE168022008430C
:1047100004E0204600F0D4FAB0BD0320E06002229D
:104720002046294600F04EFBB0BDB0B5044648888F
:10473000012818D10D4641208000012121502879FF
:1047400002280DD8C00020184521890040580028B3
:1047500006D08068FEF7BAFB0246204629469047FD
:10476000204600F05AFBB0BDB0B50D460446FC2013
:10477000205CFE21014002291BD1688801281CD140
:104780004120800000212150287902280DD8C00046
:104790002018452189004058002806D08068FEF77F
:1047A00095FB0246204629469047204600F035FBFF
:1047B000B0BD2046294600F083FAB0BDB0B50D4625
:1047C0000446FC20205C032817D12879022814D83D
:1047D000C000201845218900405800280DD080686D
:1047E000FEF774FB0246204629469047E8880028D9
:1047F00007D1204600F011FB03E02046294600F0D7
:104800005FFA0020B0BDB0B50D46044608786022BE
:1048100002400979202A10D102290ED8C800201898
:10482000452292008058002807D08068FEF74EFB92
:10483000024620462946904767E06878002816D04F
:1048400001281DD0032860D1FC20205C03281BD147
:104850006888002807D180200843802803D020469C
:10486000FFF7A4FB297902293ED8C8002FE0FC20DD
:10487000205C032817D0022810D148060AD144E052
:10488000FC20205C032816D0022807D18020084392
:1048900080283AD02046FFF789FB36E0204629469B
:1048A00000F00EFA31E07F200840000125180806CC
:1048B0001ED514351DE06888002826D1480613D07F
:1048C0002046FFF797FB287902280DD8C000201852
:1048D000452189004058002806D08068FEF7F6FA86
:1048E0000246204629469047204600F096FA0CE002
:1048F00084352046FFF7A2FB002800D00120286065
:1049000002222046294600F05DFA0020B0BD0A7858
:1049100002704A7842708A78CB781B029A184280DB
:104920000A794B791B029A1882808A79C97909021F
:104930008918C180704710B504468021FFF736FB07
:1049400000212046FFF732FB10BDF0B583B00E46C4
:10495000054602A80024048001A80470097860209C
:104960000840002810D0202837D1707801460A3935
:10497000022932D302281BD0032819D028463146F9
:1049800000F09EF9022428E070780B2813D00A2842
:104990000ED0062821D1F078002421280FD022281B
:1049A0002246214616D102AF384600F057F80AE0F9
:1049B00001A901220EE0284600F02FFA0DE002AF17
:1049C000384600F031F801463A88F088824200D338
:1049D00002463A80284600F0F5F9204603B0F0BDC3
:1049E000F0B581B0044682210326402532462B468D
:1049F000FFF796FA02272046394632462B46FFF744
:104A00008FFA204639462A46FFF753FB002001B0B3
:104A1000F0BD10B504468221FFF7B2FA022120460C
:104A2000FFF7AEFA002010BD43218900084A515C0F
:104A30000922012904D0002905D10749794404E05D
:104A40000449794401E0002211460280084670477B
:104A5000181E00202E16000040160000F0B581B090
:104A60000246432080001449085C222400281AD002
:104A700001281BD1104881210327402600923A4685
:104A80003346FFF74DFA01250B4829463A4633468F
:104A9000FFF746FA084829463246FFF70AFB009A14
:104AA0000748784404E00548784401E000242046A3
:104AB000148001B0F0BDC046181E0020FF15000094
:104AC000E3150000F0B581B004468121032640259E
:104AD00032462B46FFF724FA012720463946324654
:104AE0002B46FFF71DFA204639462A46FFF7E1FA22
:104AF000002001B0F0BD000080B5012903D10348BA
:104B00000121FEF7C7FE002080BDC046081C002022
:104B1000B0B501290ED11446012540222946FFF7E0
:104B2000C8FA2846FCF7BAFC0246034821462B4641
:104B3000FEF7CCFF0020B0BD081C002080B5022984
:104B400003D103487844FCF793FB002080BDC046A6
:104B500015CAFFFFB0B502291CD11446022140221C
:104B6000FFF7A7FA0C4D2878002813D10220FCF794
:104B700095FC02460C4878442146FCF77BFA022853
:104B800008D10120287005480721017004480068F9
:104B9000044908800020B0BDE01B0020F61B002067
:104BA0007C1A0020F81B0020E3C9FFFF70B5044603
:104BB0008321032540262A463346FFF7B1F92046D4
:104BC00029462A463346FFF7ABF9204629463246A6
:104BD000FFF76FFA002070BD00207047002070477B
:104BE00080B5032903D103487844FCF741FB00203A
:104BF00080BDC04681C9FFFFB0B503291CD1144652
:104C000003214022FFF755FA0C4D2878002813D1D4
:104C10000320FCF743FC02460C4878442146FCF78D
:104C200029FA022808D10520287005480B210170B7
:104C300004480068044908800020B0BDE01B002043
:104C4000F61B00207C1A0020F81B00204FC9FFFF34
:104C500012200880014878447047C0467215000051
:104C600004200880014878447047C046741500004D
:104C70000E200880014878447047C046681500003F
:104C80000E200880014878447047C0466615000031
:104C90000A200880014878447047C0466415000027
:104CA0000E200880014878447047C0464615000031
:104CB0000E200880014878447047C0463615000031
:104CC00080B50A7852B2002A02DBFFF734FE80BDBD
:104CD0004A78062A0DD01E2AF7D18A88022AF4D1F2
:104CE00049880129F1D107497944172200F06AF86F
:104CF00080BDC9780F29E8D1034979441D2200F00D
:104D000061F880BD041400000914000070B5044669
:104D10004D2085001C4800212A46FCF783FA002C10
:104D20002DD0194C0026204631462A46FCF77AFA47
:104D30001849794420463246FFF7CEF9164A7A449C
:104D400030462146FFF702FA0120144A7A442146F0
:104D5000FFF7FCF9FF2252320C480D49FEF790FD97
:104D600002200F4A7A442146FFF7F0F9032140223E
:104D70002046FFF79EF92046FFF7F6F970BD02487E
:104D8000FFF7C5F970BDC046181E0020081C0020A2
:104D9000841A00209A130000E21300000C14000093
:104DA0002C14000060210180014878447047C046FF
:104DB0005A1400000A210180014878447047C04617
:104DC000AA140000B0B50C46F4210223435013216D
:104DD000090144508261C261016A914200D80A46C9
:104DE00093B2002529462246FFF74AF92846B0BD6E
:104DF000B0B50C46016A914200D80A4693B200252C
:104E000029462246FFF73CF92846B0BD10B50024DC
:104E10002146FFF74EF9204610BD10B5F4210422BB
:104E200042500024214622462346FFF729F9204616
:104E300010BD10B5F421052242500024214622461F
:104E4000FFF737F9204610BD80B5034800680028F9
:104E500000D0804780BDC046501F002080B5034869
:104E60000068002800D0804780BDC046541F002045
:104E700080B50349794400200246FDF7ADF880BDB6
:104E8000DC14000080B50349794400200246FDF798
:104E9000A3F880BDC814000080B505490968002941
:104EA00004D00022034B7B4400F064FC80BDC0466C
:104EB0004C1F00202701000010B50C48002444605E
:104EC00084600178F0220A40027009480B49794455
:104ED000032200F0ADFD0748094979440160064806
:104EE000046000F07FF800F011FA10BD581F002098
:104EF000691A0020501F0020541F00200C140000CD
:104F000093FFFFFFB0B504464078532808DD6028C2
:104F10001ADC0146543902292CD360280FD030E026
:104F20000146523902290AD350282CD0512828D1C1
:104F30001A4800780F210140032921D121E01748A8
:104F4000007800071CD11CE0612813D0712818D10B
:104F500007212046FCF738FD7D21CD0041190D4881
:104F6000814204D307212046FCF72EFD40190A494F
:104F7000486106E0094800780F210140012900D06E
:104F800000242046B0BD054800780E2101400229CA
:104F9000F6D1F6E7B80B0000641F0020581F002070
:104FA00080B5FCF7CFFC80BD80B503480021B0225E
:104FB000FCF738F980BDC046641F002080B5034966
:104FC000794400200246FDF707F880BD1C1400005C
:104FD00080B50349794400200246FCF7FDFF80BDFF
:104FE0000C130000F0B581B06A4C63686A4D284626
:104FF0000A3013216F4A7A44FDF77CF8A3682846EB
:105000001D3040216C4A7A44FDF774F86020002777
:105010002F545F202E2129545E2029545D202954CD
:1050200020780F210140022900D092E028465D300F
:10503000624979440A252A4600F0FAFC574E604836
:1050400078446049794422C67761032131745E490E
:1050500079447160B060083E30461830FEF78CF934
:10506000F061FDF745F8FCF71DFBFCF721FBB7608D
:10507000F0694B4988423D4629D000283D4626D05C
:10508000306800283D4622D00025706885421ED237
:10509000FEF7FCF9002819D1B068F168382568439B
:1050A00032681018002902D08847002807D001284C
:1050B00003D1B068454330684019FCF743FCB06841
:1050C000451CB56030680028DFD100E0B568009766
:1050D0007768344880210022FEF7EEF9BD422DD2D8
:1050E000304D3068002820D0B068716888421CD2EA
:1050F000FEF7CCF9002818D1B068F168382778435A
:1051000032681018002902D08847002807D00128EB
:1051100003D1B06847433068C019FCF713FCB0688E
:10512000401CB06031680029DFD17768B468802105
:1051300000222846FEF7C0F9BC42D2D3FCF75AF948
:10514000184880210022FEF7B7F9124C2078124D42
:10515000009F0E210140022918D15D351B49794479
:105160004F22284600F064FC0F48052101700F48CB
:105170000F490122D2076368A46813432C320260EE
:10518000021D8AC204612846FBF746FF00F0AAF917
:1051900001B0F0BD581F002024200020641F002013
:1051A000445010B000180020681A0020401A002057
:1051B00030010080D0120000CB120000E21300008A
:1051C0008D0100002C140000B1FEFFFFC212000090
:1051D00080B54549884214DD4449884225D0444978
:1051E00088422FD04349884274D1444801780F2225
:1051F0000A40012A48D0002A6CD1F0221140491CF3
:1052000045E03D4A90422AD0884263D13B4802782B
:105210000F211140012931DC002951D0012959D138
:105220000121C9078268521C47E0344802780F21E7
:10523000114001292DD000294CD10121C907426814
:105240000A3241E02D4802780F211140012925D072
:1052500000293FD10121C90742680A3A34E02748B2
:1052600002780F21114003291DD0012921D00029E6
:1052700030D10121C9074268521E25E002292BD0F6
:10528000032927D11E480FE0F0221140891C01702C
:105290001CE00121C90782680A320EE00121C9071A
:1052A00082680A3A09E017480068002812D080474F
:1052B00010E00121C9078268521E8A43826005E01E
:1052C0000121C9074268521C8A434260FFF78AFEE7
:1052D00000F01CF8002080BD0B49794400200246F4
:1052E000FCF77AFEF6E7C0460200008002000040AC
:1052F000010000400300008001000080581F0020D2
:10530000501F0020541F002076100000B0B5224C22
:105310002348784420610A20224979442160606052
:105320000025E561032020761F487844E060204690
:105330001830FEF721F8E061FCF7DAFEFCF7B2F96D
:10534000FCF7B6F9A560E0691449884222D000282C
:1053500020D01CE0606885421CD2FEF797F8002838
:1053600018D1A068E1683825684322681018002920
:1053700002D08847002807D0012803D1A068454300
:1053800020684019FCF7DEFAA068451CA56020687B
:105390000028DFD1B0BDC046641F0020445010B0CB
:1053A000BBFEFFFF56110000D7FBFFFF80B5094889
:1053B0008168094A1140094B0069104059609860A2
:1053C0001878F0210140C81C1870FFF70BFEFFF79A
:1053D0009DFF80BD401A0020FFFFFF07581F0020DF
:1053E000034B196003490860034802607047C046D8
:1053F000501F00204C1F0020541F002010B50C4CE3
:1054000022600C4A11600C490B600C49029A0A6038
:105410000B4901220A810022CA80488003200870BB
:1054200000F062F82168002901D00020884710BDF3
:1054300018200020142000201C2000202020002004
:105440002420002080B5044803210170C188491E32
:10545000C18000F049F880BD2420002080B50448B8
:1054600003210170C188491CC18000F03DF880BD56
:105470002420002080B50A48012101810021C1803B
:10548000032101700221415E012904DB491E418094
:1054900000F02AF880BD034801680020884780BDDD
:1054A000242000201C20002080B50C48012101810F
:1054B0000021C180032101700421415E4A1E418800
:1054C0000BB29A4204DD491C418000F00DF880BD0A
:1054D000034801680020884780BDC0462420002082
:1054E0001C20002070470000F0B58BB040480068D9
:1054F00000287BD00A905E203E4E002232545D2070
:105500003F2131540992B277717771810220069060
:10551000305E06210891715E324608326B46351DB9
:10552000C02734465D3490C3083B1F46083723C765
:105530005A61354637460A371D3513214023384610
:105540002A4607930A9EB047384600F0A9F9284634
:1055500000F0A6F90A942046264C00F0A1F9082094
:10556000265E012E3FDB0FD0284600F00BFB08998A
:10557000625E69460E602F180799091A531C1F4A6C
:105580007A443846FCF7B6FD2078032813D001286A
:1055900029D1284600F0F6FA01461339012907DB24
:1055A00029181222D243895C29706D1C0029F7D179
:1055B0000998207017E00998207020461D3000F0EF
:1055C000E1FA14280FD325460A9C204600F0DAFAA7
:1055D0001428069806DB0A4979441422204600F074
:1055E00027FA012028700448006880470BB0F0BDFE
:1055F0001420002024200020202000203211000050
:10560000E4100000B0B504467D254078014610390D
:10561000022901D228010FE071280FD1072120466D
:10562000FCF7D2F9ED0041190548814204D3072166
:105630002046FCF7C9F94019024948612046B0BD2F
:10564000B80B0000641F0020B0B5224C23487844FA
:105650002061062022497944216060600025E561CF
:10566000032020761F487844E06020461830FDF77C
:1056700083FEE061FCF73CFDFCF714F8FCF718F83A
:10568000A560E0691449884222D0002820D01CE09F
:10569000606885421CD2FDF7F9FE002818D1A06889
:1056A000E1683825684322681018002902D088472D
:1056B000002807D0012803D1A0684543206840197D
:1056C000FFF76EFCA068451CA56020680028DFD1AC
:1056D000B0BDC046641F0020445010B097000000C9
:1056E0007A1000009BFFFFFF80B51B4988420FDD49
:1056F0001A4988421CD01A49884224D01949884244
:1057000028D11A480078012820D1FFF7EDFE21E0CA
:10571000154A90420FD088421CD106201349085EDA
:105720000822895E491E814202DDFFF797FE11E0E3
:10573000FFF7BAFE0EE006200C49085E012802DBE6
:10574000FFF780FE06E0FFF795FE03E008480168DA
:1057500000208847002080BD020000800200004039
:105760000100004003000080010000802420002090
:105770001C200020B0B582B0034C7C446D462C60E8
:10578000FFF73CFE02B0B0BDCBFEFFFFB0B5027824
:10579000F8231340F02B0DD143783F2423401B0303
:1057A0005207D20A9A18837823409B01D418042305
:1057B000032215E0F0231340E02B09D143783F2466
:1057C0001C40A301120392B29C180323022207E09B
:1057D000E0231340C02B0AD1D206540D022301222C
:1057E000855C3F222A4022430A60C018B0BD0123D5
:1057F000FAE7B0B50146037800204CE0F8241C40DD
:10580000DAB2F02C18D14C78C0232340802B45D13C
:105810008B789B09022B41D1CB789B09022B3DD180
:105820000B799D09022D39D007252A4030252C40BF
:10583000A21833D0091D2EE0F0231340E02B14D121
:105840004C78C0232340802B28D18B789B09022BD6
:1058500024D1CB789D09022D20D00F252A40202568
:105860002C40A2181AD0C91C15E0E0231340C02B0D
:105870000DD14B789B09022B10D1D206120F0DD0FF
:105880008B78C0221A40802A08D0891C03E01206B7
:1058900004D44B78491C002BB0D1B0BD0846B0BD34
:1058A00080B5014600F001F880BD70B582B00C46AD
:1058B0000546007800280E4617D026462846FFF7F2
:1058C00098FF002811D10020019001A92846FFF778
:1058D0005DFF0546019801462039602900D32E203E
:1058E00030702878761C0028E8D100203070301BFA
:1058F00002B070BD002243088B4274D303098B426F
:105900005FD3030A8B4244D3030B8B4228D3030C8F
:105910008B420DD3FF22090212BA030C8B4202D331
:105920001212090265D0030B8B4219D300E0090A59
:10593000C30B8B4201D3CB03C01A5241830B8B4262
:1059400001D38B03C01A5241430B8B4201D34B034B
:10595000C01A5241030B8B4201D30B03C01A5241B0
:10596000C30A8B4201D3CB02C01A5241830A8B4235
:1059700001D38B02C01A5241430A8B4201D34B021E
:10598000C01A5241030A8B4201D30B02C01A524182
:10599000CDD2C3098B4201D3CB01C01A5241830936
:1059A0008B4201D38B01C01A524143098B4201D370
:1059B0004B01C01A524103098B4201D30B01C01A9B
:1059C0005241C3088B4201D3CB00C01A5241830815
:1059D0008B4201D38B00C01A524143088B4201D342
:1059E0004B00C01A5241411A00D2014652411046A2
:1059F0007047FFE701B5002000F006F802BDC04681
:105A00000029F7D076E770477047C0469140031CE5
:105A100090409C46203A9340194352426346D340FB
:105A20001943704710B5002200F006F810BDC046BB
:105A300010B500F009F810BD130010B50A001900E8
:105A400000F040F810BDC04670B50F2A32D90C00E6
:105A500004430B00A40731D115000400103D2D09AB
:105A600001352D0149191E6826605E6866609E68D2
:105A7000A660DE681033E66010349942F3D10F233C
:105A800045191340032B1BD91C1F0023A408013404
:105A9000A400CE58EE5004339C42FAD103232D19B2
:105AA00009191A4005D00023CC5CEC5401339A420A
:105AB000FAD170BD0500002AF5D1FAE70500F2E73A
:105AC0001A00F8E770B583073FD0541E002A3BD078
:105AD000CEB20300032503E0621E002C34D0140074
